:020000040800F2
:10000000980B0020D9010008E1010008E301000875
:10001000E5010008E7010008E90100080000000010
:10002000000000000000000000000000EB010008DC
:10003000ED01000800000000EF0100087D0B000842
:10004000F3010008F3010008F3010008F3010008C0
:10005000F3010008F3010008F3010008F3010008B0
:10006000F3010008F3010008F3010008F3010008A0
:10007000F3010008F3010008F3010008F301000890
:10008000F3010008F3010008F3010008F301000880
:10009000F3010008F3010008F301000865050008FA
:1000A000F3010008F3010008F3010008F301000860
:1000B000F3010008F3010008F3010008F301000850
:1000C000F3010008F3010008F3010008F301000840
:1000D000F3010008F3010008F3010008F301000830
:1000E000F3010008F3010008F301000800F002F832
:1000F00000F063F80AA090E8000C82448344AAF15F
:100100000107DA4501D100F058F8AFF2090EBAE85C
:100110000F0013F0010F18BFFB1A43F0010318473B
:10012000082C0000282C000010F8013B0A4413F0B2
:10013000030408BF10F8014B1D1108BF10F8015B44
:10014000641E05D010F8016B641E01F8016BF9D133
:10015000002D15D010F8014B03F00C030C2BA1EB74
:1001600004040ABF10F8013BA4EB8314A4EB03249E
:1001700005F1010314F8016B5B1E01F8016BF9D561
:10018000914238BF10F8013BD1D3704700230024BF
:1001900000250026103A28BF78C1FBD8520728BF97
:1001A00030C148BF0B607047642900F049800020CF
:1001B00070471FB51FBD10B510BD00F084F9114682
:1001C000FFF7F7FF01F010FA00F0A2F903B4FFF710
:1001D000F2FF03BC00F0AAF909488047094800472C
:1001E000FEE7FEE7FEE7FEE7FEE7FEE7FEE7FEE7E7
:1001F000FEE7FEE704480549054A064B7047000044
:10020000850B0008ED00000898050020980B0020E1
:1002100098070020980700200FB41CB5074B06AACA
:100220007B4469460090059800F035F90020694646
:1002300000F044F91CBC5DF814FB000099020000BA
:100240002DE9F0410646002410687529314616A5AF
:1002500010D0AFF30080002802DA404213A507E077
:1002600031688A0701D512A502E0490704D511A516
:10027000012401E0AFF3008000210A2206F12407E7
:1002800009E0B0FBF2FCB0FBF2F302FB1C003030E3
:1002900078541846491C0028F3D123462A46304694
:1002A000BDE8F04100F099B8000000002D0000000A
:1002B0002B000000200000002DE9F0410F4605460C
:1002C000002028622846E968884770B3252805D0B1
:1002D000D5E901219047286A401CF2E7E9682846E1
:1002E000002688476C2804460AD0682C08D04C2C7D
:1002F00035D06A2C31D0742C31D07A2C2FD016E026
:10030000E968064628468847B042044608D16C2E64
:1003100023D04FF480662846E9688847044606E003
:100320006C2E03D04FF4807601E01EE04026E4B14D
:10033000A4F14100192802D8203446F400663A4658
:10034000214628462E60FFF72FFF60B1012808D014
:10035000FF1D27F007070837B4E78026DBE70026F4
:10036000D9E73F1DAEE72046B2E7286ABDE8F08135
:1003700010B5203AC0F00B80B1E81850203AA0E840
:100380001850B1E81850A0E81850BFF4F5AF5FEA74
:10039000027C24BFB1E81850A0E8185044BF18C927
:1003A00018C0BDE810405FEA827C24BF51F8043BCE
:1003B00040F8043B08BF7047D20728BF31F8023B22
:1003C00048BF11F8012B28BF20F8023B48BF00F8B6
:1003D000012B70477047704770472DE9F0470D4675
:1003E00099469246044600F124080168880604D51F
:1003F000E06921F01001216000E00120A84201DD48
:10040000471B00E00027A1697A1902EB0900081ACE
:10041000A0612078C00602D42046AFF300800026F9
:1004200008E0D4E901211AF806009047206A401C30
:10043000761C20624E45F4DB2078C0060AD52046A3
:10044000AFF3008006E0D4E9012130209047206A14
:10045000401C2062381EA7F10107F4DC07E0D4E954
:10046000012118F805009047206A401C2062281ED0
:10047000A5F10105F3DC2046AFF3008020780006EB
:1004800002D50220BDE8F0870120FBE701694A1C84
:1004900002610878704700B58FB0CDE901310021C5
:1004A000059105497944CDE9031011466846FFF7E7
:1004B00003FF0FB000BD0000E5FFFFFF0A6802F870
:1004C000010B0A607047754600F02CF8AE46050037
:1004D0006946534620F00700854618B020B5FFF75F
:1004E00089FEBDE820404FF000064FF000074FF0B6
:1004F00000084FF0000B21F00701AC46ACE8C00942
:10050000ACE8C009ACE8C009ACE8C0098D4670474A
:1005100010B50446AFF300802046BDE81040FFF759
:1005200055BE0000004870473805002001491820DA
:10053000ABBEFEE7260002007047000010B54FF486
:100540008061024800F015F910BD0000000801406C
:1005500010B54FF48061024800F009F910BD0000A9
:100560000008014010B54FF4007000F00FF828B1FA
:1005700000F00CFD4FF4007000F002F810BD000018
:100580000149086070470000140401400146002042
:100590000022074B1B6803EA0102054B14331B685A
:1005A0000B4013B10AB1012000E0002070470000A9
:1005B000000401402DE9F0410246002500260020FC
:1005C00000230024002791F803C00CF00F0591F8D8
:1005D00003C00CF0100CBCF1000F03D091F802C066
:1005E0004CEA050591F800C0BCF1000F31D0146849
:1005F00000202BE04FF0010C0CFA00F3B1F800C022
:100600000CEA03069E4220D183004FF00F0C0CFA37
:1006100003F7BC4305FA03FC4CEA040491F803C059
:10062000BCF1280F06D14FF0010C0CFA00FCC2F807
:1006300014C00AE091F803C0BCF1480F05D14FF097
:10064000010C0CFA00FCC2F810C0401C0828D1D3E1
:100650001460B1F800C0BCF1FF0F34DD5468002015
:100660002EE000F1080C4FF0010808FA0CF3B1F885
:1006700000C00CEA03069E4221D183004FF00F0C0C
:100680000CFA03F7BC4305FA03FC4CEA040491F8A6
:1006900003C0BCF1280F05D100F1080C08FA0CF8D2
:1006A000C2F8148091F803C0BCF1480F07D100F1E3
:1006B000080C4FF0010808FA0CF8C2F81080401C32
:1006C0000828CED35460BDE8F0810000F0B50A469A
:1006D000002300240021002500F00046B6F1004F61
:1006E00002D11D4EF16901E01B4E7168C0F3034554
:1006F00083B200F44016B6F5401F08D121F07061B6
:10070000154E766826F07066134F7E6012E000F496
:100710008016B6F5801F06D1032606FA05F4A1431C
:1007200041F0706106E0460D360103FA06F6B1436A
:1007300041F0706122B1460D360103FA06F63143ED
:1007400000F00046B6F1004F02D1034EF16101E026
:10075000014E7160F0BD0000000001400246002023
:1007600093680B400BB1012000E00020704741610D
:100770007047016170470AB1016100E04161704753
:1007800008B500F027F80121082000F0FBF84FF42D
:100790008070ADF8000010208DF8030003208DF864
:1007A000020069460A48FFF705FF0121082000F012
:1007B000E9F84FF40070ADF8000010208DF8030048
:1007C00003208DF8020069460148FFF7F3FE08BDDB
:1007D000000C014008B50121082000F0D3F82020CA
:1007E000ADF8000010208DF8030003208DF8020002
:1007F00069461B48FFF7DEFE0121082000F0C2F821
:100800001020ADF800008DF8030003208DF80200E1
:1008100069461348FFF7CEFE0121082000F0B2F828
:100820000820ADF8000010208DF8030003208DF89B
:10083000020069460A48FFF7BDFE0121042000F0CE
:10084000A1F84FF40040ADF8000010208DF803002F
:1008500003208DF8020069460248FFF7ABFE08BD91
:10086000000C01400008014010B5044604F00800E7
:10087000082805D1012201031B48FFF77CFF05E092
:1008800000224FF400411848FFF775FF04F0040000
:10089000042805D1012208211448FFF76CFF04E069
:1008A000002208211148FFF766FF04F00200022829
:1008B00005D1012210210D48FFF75DFF04E0002261
:1008C00010210A48FFF757FF04F0010028B1012268
:1008D00020210648FFF74FFF04E0002220210348B3
:1008E000FFF749FF10BD000000080140000C014067
:1008F000000100BF011EA0F10100FBD1704710B53F
:100900000446204600F02CF810BD000010B5044647
:100910004FF480700849086004F00F00FFF7A4FF4F
:100920000A20FFF7E5FF4FF480700349091D0860B6
:100930000A20FFF7DDFF10BD100C014010B5044682
:10094000142000F0ABFA4FF4007004490860201145
:10095000FFF7DCFF2046FFF7D9FF10BD140C014064
:1009600010B50446142000F099FA4FF400700449C1
:1009700008602011FFF7CAFF2046FFF7C7FF10BD30
:10098000100C014029B1064A92690243044B9A6156
:1009900004E0034A92698243014B9A617047000068
:1009A0000010024030B500210022002400232D4D0C
:1009B0006D6805F00C0121B1042905D0082923D167
:1009C00005E0294D056022E0274D05601FE0254D1B
:1009D0006D6805F47012234D6D6805F480340225AE
:1009E00005EB92421CB9214D554305600BE01D4DAE
:1009F0006D6805F400351DB11C4D5543056002E0DE
:100A0000194D5543056002E0174D056000BF00BF5A
:100A1000144D6D6805F0F0010909154D6B5C056812
:100A2000DD4045600F4D6D6805F4E061090A104D29
:100A30006B5C4568DD4085600A4D6D6805F460516A
:100A4000C90A0B4D6B5C4568DD40C560054D6D689E
:100A500005F44041890B074D6B5CC568B5FBF3F5A8
:100A6000056130BD0010024000127A0000093D000F
:100A70002C0300203C03002010B500F001F810BD4D
:100A80000CB50020019000903348006840F480309D
:100A90003149086000BF3048006800F40030009021
:100AA0000198401C0190009818B90198B0F5A06F0A
:100AB000F1D12948006800F4003010B10120009005
:100AC00001E0002000900098012843D123480068ED
:100AD00040F01000214908600846006820F003003B
:100AE00008600846006840F0020008601A48406844
:100AF000194948600846406848600846406840F424
:100B0000806048600846406820F47C1048600846D1
:100B1000406840F4E81048600846006840F0807083
:100B2000086000BF0C48006800F000700028F9D091
:100B30000948406820F003000749486008464068BB
:100B400040F00200486000BF0348406800F00C001D
:100B50000828F9D10CBD000000100240002002401E
:100B6000034908600021034A1160034A117070476D
:100B70005C030020580300205403002010B501F04E
:100B80006FF910BD10B51348006840F0010011491D
:100B9000086008464068104908400E494860084609
:100BA00000680E4908400B4908600846006820F4B8
:100BB000802008600846406820F4FE0048604FF43A
:100BC0001F008860FFF758FF4FF00060044908607D
:100BD00010BD0000001002400000FFF8FFFFF6FE0D
:100BE00008ED00E010B586B0044602940020ADF890
:100BF0000C00ADF80E00ADF81000ADF814000C209C
:100C0000ADF8120001210520FFF7BCFE0121880389
:100C1000FFF7B8FE18208DF807004FF40070ADF80C
:100C2000040003208DF8060001A90B48FFF7C2FC61
:100C300004208DF807000002ADF8040001A9064861
:100C4000FFF7B8FC02A9054800F016F80121034897
:100C500000F006F806B010BD000801400038014061
:100C600021B1828942F40052828104E082894DF6EA
:100C7000FF731A40828170472DE9F04786B0054620
:100C80000E460024A24600BFA1460027B08900B14D
:100C900000BF2F462C8A4CF6FF700440F0880443B6
:100CA0002C82AC894EF6F3100440B0883189084399
:100CB000718908430443AC81AC8A4FF6FF4004407D
:100CC000B0890443AC8201A8FFF76CFE1F4887423D
:100CD00002D1DDF810A001E0DDF80CA0A88900F435
:100CE000004040B10AEBCA0000EB0A10316849002D
:100CF000B0FBF1F807E00AEBCA0000EB0A1031681C
:100D00008900B0FBF1F86420B8FBF0F00401200981
:100D1000642101FB1089A88900F4004040B1322011
:100D200000EBC900B0FBF1F000F00700044308E05D
:100D3000322000EB09106421B0FBF1F000F00F004D
:100D400004432C8106B0BDE8F08700000038014064
:100D500030B504460025802C03DAA4F1200085B2CA
:100D60000EE0002009E00C4931F81010A14203D137
:100D700000F15F018DB202E0401C4328F3D300BFB5
:100D800005EB8501054A02EB41000A22044900F007
:100D900031F8034830BD000090030020A120000876
:100DA0002C040020004870471604002010B50446AB
:100DB0000348047000F0D2FD00200249087010BD05
:100DC000030000200200002008B50146002000902A
:100DD0000888ADF8000088788DF802000448007893
:100DE000C0F112020098D0400090009808BD0000A9
:100DF0002604002010B50346002003E01C5C0C54C0
:100E0000441CE0B29042F9DB10BDF0B503460C463D
:100E10001546002023E01E5C06F00F011E5C321117
:100E200001F002070E4667F35F0601F0040706EBC8
:100E3000870601F0080706EBC706265402F00207F2
:100E4000164667F35F0602F0040706EB870602F01A
:100E5000080706EBC7064719E655461CF0B2A8423C
:100E6000D9DBF0BD0CB50021019112E00021009109
:100E700004E0BDF80010491C89B20091BDF80010D3
:100E800041F288329142F4DBBDF80410491C89B26A
:100E90000191BDF804108142E8DB0CBD0CB50021C6
:100EA000019110E00021009104E0BDF80010491C00
:100EB00089B20091BDF800100429F6DBBDF80410DA
:100EC000491C89B20191BDF804108142EADB0CBDD6
:100ED00070B504460D4625B101220021052000F021
:100EE00084FD24B101225021204600F07EFD70BD1A
:100EF00010B5044634B105230622002105A000F0F8
:100F0000C5FD05E00523062200210BA000F0BEFD73
:100F100010BD00004869E1BB836E207468E1BB8BA3
:100F2000207472C3AA6E206469E1BB876E20746866
:100F30006FE1BAA1690000004B69E1BB836D2074C9
:100F4000726120626C7565746F6F74682E2E2E004E
:100F50000146024850F82100704700003804002084
:100F60000146024850F8210070470000B8040020F4
:100F700001207047042070470FB410B5BDF81A1057
:100F80000398FFF7EBFB10BC5DF814FB012001494F
:100F900008707047600300201CB5044604480194A3
:100FA0000069009002480FC800F0F7F81CBD00006F
:100FB0006403002008B504480069009002480FC887
:100FC00000F02CF908BD00006403002008B50448B7
:100FD0000069009002480FC800F04CF908BD0000FD
:100FE0006403002008B504480069009002480FC857
:100FF00000F06DF808BD0000780300201CB5044621
:10100000044801940069009002480FC800F0C5F838
:101010001CBD00007803002008B50448006900905A
:1010200002480FC800F0FAF808BD0000780300205D
:1010300008B504480069009002480FC800F01AF98A
:1010400008BD0000780300200FB410B501210498FA
:10105000FFF798FC01210598FFF794FCBDF81800F4
:10106000054908801020C870032088700298FFF797
:10107000A1FA10BC5DF814FB8C0300200FB41CB562
:101080000898009004A80FC800F028FE01200190E5
:101090000898009004A80FC800F084FE0220FFF713
:1010A000FDFE0898009004A80FC8FFF765FF0446EE
:1010B000002001900898009004A80FC800F072FE6C
:1010C0000220FFF7EBFE20461CBC5DF814FB0FB4BA
:1010D0007CB500240A98009006A80FC800F0FEFD19
:1010E000002520E0012001900A98009006A80FC872
:1010F00000F058FE0220FFF7D1FE0A98009006A8E3
:101100000FC8FFF739FF40EA4400C4B20020019045
:101110000A98009006A80FC800F044FE0220FFF7CE
:10112000BDFE681CC5B2082DDCDB002001900A98CA
:10113000009006A80FC800F004F820467CBC5DF8BB
:1011400014FB0FB41CB5099C0898009004A80FC8A4
:1011500000F0D4FD01940898009004A80FC800F096
:1011600033FE0220FFF79AFE0120019008980090BC
:1011700004A80FC800F016FE0220FFF78FFE002023
:1011800001900898009004A80FC800F00BFE022000
:10119000FFF784FE1CBC5DF814FB0FB47CB50B9EFE
:1011A00080240A98009006A80FC800F0A7FD00252B
:1011B00021E0002001900A98009006A80FC800F0D6
:1011C000F1FD04EA060001900A98009006A80FC8F5
:1011D00000F0FAFD0220FFF761FE012001900A985D
:1011E000009006A80FC800F0DDFD0220FFF756FEB4
:1011F0006410681CC5B2082DDBDB002001900A9842
:10120000009006A80FC800F0CDFD0A98009006A82F
:101210000FC8FFF733FF7CBC5DF814FB0FB41CB59F
:101220000898009004A80FC800F068FD0120019004
:101230000898009004A80FC800F0C6FD0220FFF730
:101240002DFE012001900898009004A80FC800F01E
:10125000A9FD0220FFF722FE0020019008980090CF
:1012600004A80FC800F0B0FD0220FFF717FE1CBC59
:101270005DF814FB0FB41CB50898009004A80FC8C3
:1012800000F03CFD002001900898009004A80FC8D1
:1012900000F09AFD012001900898009004A80FC862
:1012A00000F080FD0220FFF7F9FD01200190089871
:1012B000009004A80FC800F087FD0220FFF7EEFDA4
:1012C0001CBC5DF814FB000008B501210820FFF7E5
:1012D00059FB0420ADF800008DF803006946094869
:1012E000FFF768F901210820FFF74CFB0820ADF853
:1012F000000004208DF8030069460248FFF75AF900
:1013000008BD0000000C014008B5044800690090C9
:1013100002480FC8FFF798FE08BD000064030020D4
:1013200008B504480069009002480FC8FFF78CFE1A
:1013300008BD00007803002038B501210420FFF724
:1013400021FB4FF40040ADF8000010208DF80300A1
:1013500003208DF8020069462F48FFF72BF9012181
:101360000C20FFF70FFB01210820FFF70BFBFFF715
:1013700007FA43F69820FFF7BBFA4FF400702749AD
:1013800008600320FFF7C2FA43F69820FFF7B0FA8F
:101390000320FFF7BBFA43F69820FFF7A9FA0320D2
:1013A000FFF7B4FA43F69820FFF7A2FA0220FFF7FE
:1013B000ADFA43F69820FFF79BFA2820FFF7BEFA14
:1013C00043F69820FFF794FA0C20FFF7B7FA43F69C
:1013D0009820FFF78DFA0620FFF7B0FA43F6982021
:1013E000FFF786FA4020FFF7A9FA43F69820FFF7A7
:1013F0007FFA0B4D002404E02878FFF780FA641C84
:101400006D1C402CF8D38020FFF798FA43F6982003
:10141000FFF76EFA38BD000000080140140C0140CF
:10142000E52C000808B501210420FFF7ABFA4FF4C2
:101430008060ADF8000010208DF8030003208DF8C7
:10144000020069461C48FFF7B5F801210820FFF7A4
:1014500099FA4FF40040ADF8000003208DF8020027
:1014600010208DF8030069461448FFF7A3F8012106
:101470000820FFF787FA4FF40050ADF80000032072
:101480008DF8020010208DF8030069460B48FFF725
:1014900091F801210820FFF775FA4FF48040ADF86C
:1014A000000003208DF8020010208DF8030069462B
:1014B0000248FFF77FF808BD00080140000C01401A
:1014C00000B587B01C2205A16846FEF751FF002237
:1014D0001921684600F024FC07B000BDAED580A8F5
:1014E0003FD300408D14A0C0DA1281CFD9F1DB4088
:1014F000A4A62000AF00000010B500F017F84FF4CC
:101500001650FFF76FFB6420FFF72AFBFFF714FF6D
:10151000FFF7FAFEFFF704FFFFF7D2FFFFF7D4FE55
:10152000FFF780FF00F0B8F910BD000030B5164895
:1015300000684FF47A72B0FBF2F1B1F1807F01D311
:1015400001201DE021F07F40401E4FF0E02250615D
:1015500050170F22002807DA13071D0E0B4B00F05F
:101560000F04241F1D5503E013071C0E084B1C54C9
:1015700000BF00204FF0E0229061072010610020A2
:1015800008B100BFFEE730BD4003002018ED00E0C9
:1015900000E400E010B505230322022103A000F0BF
:1015A00075FA4FF49670FFF75DFC10BD4E68C3B33B
:1015B0006D2033202D20506F776572206F6E0000F4
:1015C00070B5054600240AE02046FFF7C9FC42F248
:1015D0001071884201D2002070BD601CC4B2AC42C0
:1015E000F2DB0120F8E700004FF0000800BF012106
:1015F0000846FFF7C7F901217C48FFF767F8FFF7B6
:101600007BFF00F0ABF900BF0024EDE000BF78489D
:1016100000780028FBD0002075490870C8F101004F
:101620001FFA80F8B8F1000F02D0FEF791FF01E039
:10163000FEF784FF00F030FBFFF79CFC6D4908705B
:10164000FFF796FC6C4908706C48007828B1084692
:10165000017868480078FFF73BFC68480078062866
:1016600072D2DFE800F003112A5CADAE0523072239
:10167000002163A000F00AFAFFF78CFF00F06EF97A
:1016800001205E490870AEE06348007840B9052348
:101690000722002161A000F0F9F901205E490870DD
:1016A00000F040F910B10520FFF780FB00F0BCFB13
:1016B00010B10220FFF77AFB95E05748007868B92F
:1016C00001205549087000F025F905230722002163
:1016D00059A000F0DBF900F01BFA84E000F018FAE2
:1016E00006460523072200215CA000F0CFF907225F
:1016F0000021204600F0B6F9A019C4B23046FFF729
:101700005FFF6043C4B20A2C02DD0320FFF74EFBEB
:1017100000F008F910B10120FFF748FB63E03E48F4
:10172000007890B901203C49087000240523042268
:10173000002151A000F0AAF907220F21252000F076
:101740002CF900F0E5F94EE04CE000F0E1F9064636
:1017500005230722002147A000F098F90722002165
:10176000204600F07FF900250FE02819C7B228466F
:10177000FFF7EEFB464941F827002846FFF7F0FB4C
:10178000444941F82700681CC5B2B542EDDBA019F9
:10179000C4B23046FFF714FF6043C4B2642C01DDCD
:1017A000642000E020460446642C02DD0320FFF79D
:1017B000FDFA00F0B7F810B10120FFF7F7FA12E0D8
:1017C00011E01548007830B90B480078FFF790FB1E
:1017D00001201149087000F0A5F810B10120FFF7B1
:1017E000E5FA00E000BF00BF10E700000002300093
:1017F000540300200000002001000020030000200E
:10180000506869C3AA6E2062E1BAA36E2064656D58
:101810006F20762E31000000020000206E68E1BAD1
:10182000A56E206EC3BA7420535441525420C49103
:10183000E1BB8320C4916F00C491E1BAB774206EFC
:1018400067C3B36E207461792076C3A06F2063E113
:10185000BAA36D206269E1BABF6E0000202020208B
:101860002020202020202020202020202020202078
:101870002020202020202000C491616E67206CE190
:10188000BAA579206DE1BAAB752E2E2E00000000AE
:1018900004000020940100203EB500F0A7FA0A25BC
:1018A00018A207CA8DE807009DF80100022801D19F
:1018B000012000E0022016490870FFF7ADFBAE20C2
:1018C000FFF79CFB08B101203EBD0820FFF796FB07
:1018D00008B10220F8E7002409E01DF80400FFF732
:1018E0008DFB10B1E01CC0B2EEE7601CC4B20A2C44
:1018F000F3DBFFF79DFB80227F21022000F06EF9D1
:101900000020E1E7508327001F1F00000021000096
:101910002504002010B500227F21092000F05EF987
:1019200010BD00000B480188002209B901220AE01D
:101930000948008808B9012205E007480088081A0C
:10194000052800DD01221AB103480180C8B27047A2
:101950000020FCE7280400202803002070B50021A7
:10196000084600F009FAFFF725FB7820FFF714FB83
:101970004020FFF711FB00240AE0002504E00020CE
:10198000FFF70AFB681CC5B2802DF8DB601CC4B2EF
:10199000082CF2DBFFF71AFB70BDFEB507460D46BB
:1019A00014463846FFF7D4F9064605226946701DED
:1019B000FFF72BFAA01EC1B205236A46284600F0A5
:1019C000C9F9601EC1B205230DF10502284600F0D9
:1019D000C1F9052269463046FFF717FA05236A4622
:1019E0002146284600F0B6F9FEBD2DE9F04385B04A
:1019F0000746884614460A250526052F16D1FFF707
:101A0000D1F98146324669464846FFF7FEF9601E25
:101A1000C1B233466A46404600F09CF90DEB06021F
:101A200033462146404600F095F917E0384600F06D
:101A30005DF881462A4669464846FFF7E6F9601E8A
:101A4000C1B22B466A46404600F084F90DEB050210
:101A50002B462146404600F07DF900BF00BF05B08F
:101A6000BDE8F08370B586B004460D4616462246A2
:101A700005A16846FEF7D0FB052332462946684695
:101A800000F004F806B070BD256C64002DE9F0414B
:101A900004460E4690461F46207808B9BDE8F081FE
:101AA0002078802801DA257811E02078CF2807DA1D
:101AB00061782078002200F0EBF985B2641C06E022
:101AC000A2786178207800F0E3F985B2A41C424640
:101AD00031462846FFF761FFF019C1B23B46424646
:101AE000601CFFF7D3FF00BFD8E7000010B5024627
:101AF000002106E02D20C1F10703044CE054481CEE
:101B0000C1B29142F6DB014810BD00001B04002069
:101B10002DE9FC4100F0ADF846B22D480078704345
:101B200000EB4000C7B2FFF777FAAE20FFF766FA86
:101B300010B10020BDE8FC810720FFF75FFA08B173
:101B40000020F7E7FFF768FAAF20FFF757FA08B170
:101B50000020EFE7002532E0002407E0FFF742FA1B
:101B6000C4F1020101AA5054601CC4B2032CF5DB7D
:101B700001A8FFF729F929466A1CD5B2154A42F88F
:101B8000210013480078012812DD002407E0FFF748
:101B900029FAC4F102010DF80100601CC4B2032C43
:101BA000F5DB6846FFF710F9691E0B4A42F8210081
:101BB00007480078032101FB1070C7B200BF002F57
:101BC000CADCFFF735FA002000F019F8F0B2B1E7EF
:101BD00025040020B8040020380400202DE9F0413D
:101BE00007460D461646384600F009F804462C40D4
:101BF00034432146384600F021F8BDE8F08170B545
:101C00000446FFF709FAAE20FFF7F8F908B1FF2004
:101C100070BD2046FFF7F2F908B1FF20F8E7FFF7A3
:101C2000FBF9AF20FFF7EAF908B1FF20F0E7FFF773
:101C3000D9F90546FFF7FCF92846E9E770B50546EE
:101C40000C46FFF7E9F9AE20FFF7D8F908B10120FB
:101C500070BD2846FFF7D2F908B10120F8E7204609
:101C6000FFF7CCF908B10120F2E7FFF7E1F9002016
:101C7000EEE770B50620FFF7C2FF45B20420FFF77C
:101C8000BEFF46B2701B44B2002C02DA04F1200001
:101C900000E02046C0B270BD10B504210D48FEF72B
:101CA0005DFD28B90C480088401C0B49088002E003
:101CB00000200949088008210648FEF74FFD28B991
:101CC00005484088401C0449488002E00020024941
:101CD000488010BD000C0140280400200FB410B54E
:101CE000BDF81A00044908800420C8700398FEF764
:101CF00061FC10BC5DF814FB8C0300200FB410B520
:101D0000BDF81A00054908801020C87003208870AB
:101D10000398FEF74FFC10BC5DF814FB8C03002009
:101D20002DE9F04105460E461746FFF743F97820A6
:101D3000FFF732F93846FFF72FF9002404E0285D59
:101D4000FFF72AF9601CC4B2B442F8DBFFF73EF992
:101D5000BDE8F0812DE9F04106460F4614461D46C8
:101D60003946304600F008F8402229462046FFF761
:101D7000D7FFBDE8F08100007CB505460C4607A101
:101D800003C9CDE900018DF801508DF8044000220F
:101D900006216846FFF7C4FF7CBD000021007F22BA
:101DA000000700000FB410B5079C2CB1BDF8181047
:101DB0000298FEF7DEFC04E0BDF818100298FEF76A
:101DC000D6FC10BC5DF814FB0FB410B5079C2CB109
:101DD000BDF81A100398FEF7CCFC04E0BDF81A1009
:101DE0000398FEF7C4FC10BC5DF814FB70B54022EC
:101DF000BF210920FFF7F2FE00246420FFF74EF810
:101E00000BE00920FFF7FBFE054605F0400000B996
:101E100008E06420FFF742F800BF2046611CCCB206
:101E20006428EEDB00BF70BD0B484188002209B971
:101E300001220AE00948008808B9012205E00748A4
:101E40000088081A052800DD01221AB10348018024
:101E5000C8B270470020FCE7280400202A030020B5
:101E600008480068401C07490860084600680649A1
:101E70000968884205D3002002490860012003490F
:101E800008707047580300205C03002054030020B2
:101E900010B503460020802B01DA184612E0E02B33
:101EA00006DA03F01F00800101F03F04204309E03F
:101EB00003F00F00800101F03F042043800102F095
:101EC0003F04204310BD000000000000005F000040
:101ED0000003000300143E143E14242A7F2A1243F8
:101EE0003308666136495522500005030000001C86
:101EF0002241000041221C0014083E081408083E3C
:101F00000808005030000008080808080060600059
:101F10000020100804023E5149453E0004027F00A3
:101F2000426151494622414949361814127F10270F
:101F3000454545393E49494932010171090736494C
:101F4000494936264949493E003636000000563692
:101F50000000081422410014141414140041221427
:101F60000802015109063E4159555E7E0909097E64
:101F70007F494949363E414141227F4141413E7FAF
:101F8000494949417F090909013E4141493A7F08D0
:101F900008087F00417F4100304040403F7F0814E7
:101FA00022417F404040407F020C027F7F020408B4
:101FB0007F3E4141413E7F090909061E2121215EE4
:101FC0007F09090976264949493201017F01013F0C
:101FD0004040403F1F2040201F7F2010207F412293
:101FE0001C224107087008076151494543007F41A1
:101FF000000002040810200000417F0004020102DA
:10200000044040404040000102040040A9AAA8F05A
:102010007F444444383844444444384444447F383A
:102020005454541804047E0505085454543C7F0845
:1020300004047800447D40002040443D007F102887
:10204000440000417F40007C047804787C0804044C
:102050007838444444387C14141408081414147C4C
:10206000007C080404485454542004043F44443C75
:102070004040207C1C2040201C3C4030403C4428F8
:102080001028440C5050503C4464544C44000836D2
:10209000414100007F000041413608000201020476
:1020A000020000000000000000000000000200002C
:1020B0000000F800000000000000001800180000F8
:1020C00001000100A0F0A0F0A001010301002050D8
:1020D000F8509002010003031898403008010202F2
:1020E0000102B048A810800000000000002818007D
:1020F00000000001020000E01008000002010000E2
:10210000000810E0000000010000A040F040A00026
:10211000000100004040F04040000201000000804B
:1021200080000000000000004040404040000303E9
:1021300000000000000000010000000000804020BE
:10214000100102020201F0884828F000000003009C
:10215000002010F800020302020210088848300133
:102160000202020110084848B00000000300C0A0AD
:1021700090F880010202020138282828C8010202D2
:102180000201F04848489000000300000808884811
:10219000380102020201B0484848B00102020201BF
:1021A00030484848F0000101000000B0B0000000D5
:1021B0000201000000B0B00000000001020040A0D9
:1021C0001008000000000000A0A0A0A0A0000201D4
:1021D0000000000810A0400000020000100888481D
:1021E000300102020202F008C8A8F0030000000358
:1021F000F0484848F00302020201F8484848B0019C
:1022000002020201F0080808100302020201F808A5
:102210000808F00302020202F848484808030000D8
:102220000000F8484848080102020201F008084886
:10223000D00300000003F8404040F8000203020011
:102240000008F80800010202020180000000F80303
:1022500000000102F840A010080302020202F80088
:102260000000000300000003F8106010F8030000F5
:102270000003F8102040F80102020201F0080808EB
:10228000F00300000000F848484830000101010256
:10229000F0080808F00300000003F8484848B001BF
:1022A000020202013048484890000003000008087C
:1022B000F808080102020201F8000000F80001021B
:1022C0000100F8000000F80301000103F80080009D
:1022D000F802010001020810E010080000030000ED
:1022E000384080403803020202020888482818005B
:1022F0000302000000F808000000000000011020A8
:102300004080000000020300000008F80000000008
:10231000000020100810200202020202000000004B
:10232000000000000000000810200001020202036B
:1023300000A0A0A0C00302020201F8202020C001DA
:1023400002020202C0202020200102020203C0205B
:102350002020F80102020200C0A0A0A0C0000003DB
:1023600000002020F028280005050503C0202020BB
:10237000E00300000003F8402020C0000203020038
:102380000020E800000102020100000020E8000334
:1023900000010200F8804020000002030200000853
:1023A000F800000300030003E020C020C003000089
:1023B0000003E0402020C00102020201C0202020D2
:1023C000C00300000000E0A0A0A040000000000347
:1023D00040A0A0A0E0000300000000E04020200298
:1023E0000202020140A0A0A0000000010202202081
:1023F000F820200102020103E0000000E0000102D9
:102400000100E0000000E00102010201E0008000A4
:10241000E002010001022040804020000505050384
:10242000E0000000E002030202022020A060200081
:10243000000102020040B008080000030000000094
:10244000F8000002020100000808B040000000008F
:10245000000010081020100102020103E00008042F
:10246000E00102020103E0040800E00102020103AE
:10247000E4020408E40102020103E0040C00E001AC
:10248000020A0103E0000000E00102020100E00096
:1024900000E0300102020100E00008E43001020225
:1024A0000100E00408E0300102020100E20102E460
:1024B000340102020100E0040CE03001020A0100D4
:1024C000E00000E0300102020200C0A0A8A4C001A8
:1024D00002020200C0A4A8A0C00102020200C4A21D
:1024E000A4A8C40102020200C0A4ACA0C001020A58
:1024F0000200C0A0A0A0C00102020200C0A8A4A8BF
:10250000C00102020200C2A9A4A8C0010202020086
:10251000C0A8A4A9C2030505050182514A5482013D
:1025200002020200C0A8A4A9C301020A0200C0A8B6
:10253000A4A8C000020302000020E8040000020377
:1025400002000024E8000000020302000422EC085C
:102550000400020302000024EC000000020B020051
:102560000020E800000005050503E0000804E00085
:1025700005050503E0040800E00005050503E40285
:102580000408E40005050503E0040C00E000020A6D
:10259000020170808080F0010202020300A0A4A862
:1025A000C0010202020300A0A8A4C00102020203AB
:1025B00004A2A4A8C4010202020300A4ACA0C001AA
:1025C000020A020300A0A0A0C001020A020304A89C
:1025D000A8A4C00205050507085052498002050558
:1025E0000507085152488002050505070A51524C5B
:1025F000820205050507085153488001020A0201BD
:1026000004A8A8A4C0010202020300A8A4A8C00153
:102610000202020302A9A4A8C0010202020300A848
:10262000A4A9C2020505050702514A54820102020B
:10263000020300A8A5ABC001020A020300A8A4A8D7
:10264000C00102020201C0202824C00102020201CE
:10265000C0202428C00102020201C4222428C4018F
:1026600002020201C0242C20C001020A0201C02083
:102670002020C00102020201C0282428C001020259
:102680000201C2292428C00102020201C028242913
:10269000C2030404040382514A5482030404040361
:1026A000805049538001020A0201C0282428C00139
:1026B00002020201C0202028D80102020201C22425
:1026C0002028D80102020201C0242228D801020ACF
:1026D0000201C0202028D80102020201C2262028BF
:1026E000D8030404040382414254B20102020302EB
:1026F000804048FC080000000000000000000000CE
:102700000000000000000000F800000000000000D1
:10271000333000000000100C06100C060000000012
:10272000000000000040C07840C0784000043F0432
:10273000043F040400007088FC08300000001820EA
:10274000FF211E0000F008F000E018000000211C2E
:10275000031E211E0000F00888700000001E2123C7
:10276000241927211010160E0000000000000000A0
:102770000000000000000000E0180402000000005B
:10278000071820400000020418E00000000040206C
:102790001807000000404080F08040400002020125
:1027A0000F01020200000000F00000000001010122
:1027B0001F01010100000000000000000080B07057
:1027C0000000000000000000000000000000010107
:1027D0000101010101000000000000000000303094
:1027E0000000000000000000008060180400601875
:1027F000060100000000E010080810E000000F10C3
:102800002020100F00001010F80000000000202011
:102810003F20200000007008080888700000302861
:102820002422213000003008888848300000182019
:102830002020110E000000C02010F8000000070446
:1028400024243F240000F808888808080000192183
:102850002020110E0000E0108888180000000F11E1
:102860002020110E0000380808C8380800000000B9
:102870003F000000000070880808887000001C22DB
:102880002121221C0000E010080810E000000031A7
:102890002222110F00000000C0C000000000000054
:1028A00030300000000000008000000000000080C8
:1028B00060000000000000804020100800000102BD
:1028C0000408102000404040404040400004040400
:1028D00004040404000008102040800000002010C0
:1028E0000804020100007048080808F00000000019
:1028F0003036010000C030C828E810E00007182773
:102900002423140B000000C038E0000000203C230A
:10291000020227382008F8888888700000203F20AD
:102920002020110E00C030080808083800071820C1
:10293000202010080008F808080810E000203F20B8
:102940002020100F0008F88888E8081000203F2099
:10295000202320180008F88888E8081000203F206D
:102960000003000000C030080808380000071820E5
:1029700020221E020008F808000008F808203F2165
:102980000101213F20000808F8080800000020206D
:102990003F2020000000000808F8080800C08080E0
:1029A000807F00000008F888C028180800203F2019
:1029B000012638200008F8080000000000203F2011
:1029C000202020300008F8F800F8F80800203F0028
:1029D0003F003F200008F830C00008F808203F20E2
:1029E0000007183F00E01008080810E0000F102052
:1029F0002020100F0008F808080808F000203F21E8
:102A00000101010000E01008080810E0000F182480
:102A10002438504F0008F8888888887000203F20AC
:102A200000030C30200070880808083800003820A7
:102A30002121221C00180808F808081800000020AE
:102A40003F2000000008F808000008F808001F20D8
:102A50002020201F000878880000C83808000007E0
:102A6000380E010000F80800F80008F800033C07E1
:102A700000073C0300081868808068180820302C84
:102A800003032C30200838C800C838080000002094
:102A90003F2000000010080808C838080020382629
:102AA0002120201800000000FE02020200000000A9
:102AB0007F40404000000C30C000000000000000DB
:102AC000010638C00000020202FE00000000404083
:102AD000407F000000000004020202040000000029
:102AE0000000000000000000000000000080808066
:102AF000808080808000020204000000000000004E
:102B00000000000000000080808080000000192488
:102B10002222223F2008F8008080000000003F11A0
:102B20002020110E000000008080800000000E11A7
:102B30002020201100000000808088F800000E1185
:102B40002020103F200000808080800000001F2295
:102B50002222221300008080F0888888180020201C
:102B60003F202000000000808080808000006B9467
:102B7000949493600008F8008080800000203F213A
:102B80000000203F200080989800000000002020D6
:102B90003F20200000000000809898000000C080C6
:102BA00080807F000008F8000080808000203F24A3
:102BB000022D302000000808F8000000000020204E
:102BC0003F202000008080808080808000203F2087
:102BD000003F20003F8080008080800000203F2157
:102BE0000000203F200000808080800000001F2027
:102BF0002020201F00808000808000000080FFA136
:102C00002020110E000000008080808000000E1146
:102C10002020A0FF80808080008080800020203FD6
:102C2000212000010000008080808080000033248B
:102C30002424241900008080E0808000000000002F
:102C40001F202000008080000000808000001F20E6
:102C50002020103F20808080000080808000010EB6
:102C6000300806010080800080008080800F300CDA
:102C7000030C300F00008080008080800000203135
:102C80002E0E312000808080000080808080818E28
:102C90007018060100008080808080800000213054
:102CA0002C2221300000000000807C020200000085
:102CB00000003F404000000000FF00000000000056
:102CC00000FF0000000002027C8000000000404085
:102CD0003F000000000006010102020404000000A1
:102CE00000000000000000000000000000101010B4
:102CF000101010101018181818181818181C1C1C70
:102D00001C1C1C1C1C1E1E1E1E1E1E1E1E1F1F1FEA
:102D10001F1F1F1F1F000000000000000000000018
:102D20000000000000000000482D00080000002006
:102D30002C040000280100082C3000082C0400207E
:102D40006C0700008C0100081200011006BD8E11F6
:102D5000004C04124D0412710412CB0412C108126B
:102D6000CF0412D10C52BA0812F12810060D8F119F
:102D7000003304122E0812470C523004124C041275
:102D8000F22C12A63012AC2C12EC5412222812266D
:102D900028123808121C2012FB14121914122514C0
:102DA000123734124A04124838125B4C123C041297
:102DB0003B58122A4852DA7412C64812E97812F4C3
:102DC00038121570123D6412EA1412DF1812E68CE4
:102DD00012014C43238F94120E64120F6812169C3A
:102DE000432C8F1C12A1D012569412854C12C5D8B8
:102DF00012C73C12D83C12E06012B06412B768529D
:102E0000B9DC52D85812FA5C92E16425001286802F
:102E10001213D0161D20165F24126DE412A8EC5276
:102E2000951C12720C168C3412BC5412B25452B847
:102E3000BC12D65052F650251012C93C5660681686
:102E40006B2C12A38812AD1852C81C16A73C12ABEB
:102E50001C100A61E41500E2E21500B104100667D7
:102E6000E315002910127D1412A80412840C124DCF
:102E700010125F2412B70C100608E5150052041258
:102E80006904128F0412880812910412A30412CC50
:102E900034129D4012870412515412EF3C12392C07
:102EA000125A3412102012CB1412F714122B3812AB
:102EB000741012A51412C20412BC0812BE2012CA49
:102EC0005012840412839012BE88121B504392E465
:102ED0003C125F7812496412F01C12BB4812FD9834
:102EE000523D18128C8052955012B15052B89C121B
:102EF00044BC12489012B1941264E452D24C431C68
:102F0000E5CC52804C4301E54C126298526C04129D
:102F10006588127878125C3016182016E11C12129F
:102F20004C12D3DC1242E8569410126A64163F30F9
:102F3000166E2016AB2012034C161E24124CF812EB
:102F400058E856712821A01236C016D660121C48C7
:102F500016DB28127C5816DD10431FE5D052BA90BC
:102F6000A10120050102030404A00D0607080902BF
:102F700004060800A24A041C2118712C61192004BF
:102F80000C01400412080B2104F00440008014439B
:102F9000000407308FFA00F9006901E71EE51EB052
:102FA00001E91EEB1EEF1EED1EF11EE900E800BD5B
:102FB0001EBB1EB91EEA00BF1EC11EC51EC31EC712
:102FC0001EED00EC002901C91ECB1EFD00F31EF909
:102FD0001EF71EF51EE000E100E300A31EA11E0384
:102FE00001AF1EB11EB51EB31EB71EE200A51EA77F
:102FF0001EAB1EA91EAD1EF300F200F500CF1ECDC4
:103000001EF400D11ED31ED71ED51ED91EA101DD70
:103010001EDB1EE31EDF1EE11E110122147F2A1497
:0C3020000C1E210134053F0001120400C9
:04000005080000ED02
:00000001FF
