:020000040800F2
:10000000C00E0020D9010008E1010008E30100084A
:10001000E5010008E7010008E90100080000000010
:10002000000000000000000000000000EB010008DC
:10003000ED01000800000000EF0100087D0B000842
:10004000F3010008F3010008F3010008F3010008C0
:10005000F3010008F3010008F3010008F3010008B0
:10006000F3010008F3010008F3010008F3010008A0
:10007000F3010008F3010008F3010008F301000890
:10008000F3010008F3010008F3010008F301000880
:10009000F3010008F3010008F301000865050008FA
:1000A000F3010008F3010008F3010008F301000860
:1000B000F3010008F3010008F3010008F301000850
:1000C000F3010008F3010008F3010008F301000840
:1000D000F3010008F3010008F3010008F301000830
:1000E000F3010008F3010008F301000800F002F832
:1000F00000F063F80AA090E8000C82448344AAF15F
:100100000107DA4501D100F058F8AFF2090EBAE85C
:100110000F0013F0010F18BFFB1A43F0010318473B
:1001200084320000A432000010F8013B0A4413F0AE
:10013000030408BF10F8014B1D1108BF10F8015B44
:10014000641E05D010F8016B641E01F8016BF9D133
:10015000002D15D010F8014B03F00C030C2BA1EB74
:1001600004040ABF10F8013BA4EB8314A4EB03249E
:1001700005F1010314F8016B5B1E01F8016BF9D561
:10018000914238BF10F8013BD1D3704700230024BF
:1001900000250026103A28BF78C1FBD8520728BF97
:1001A00030C148BF0B607047642900F049800020CF
:1001B00070471FB51FBD10B510BD00F084F9114682
:1001C000FFF7F7FF01F0EAF900F0A2F903B4FFF737
:1001D000F2FF03BC00F0AAF909488047094800472C
:1001E000FEE7FEE7FEE7FEE7FEE7FEE7FEE7FEE7E7
:1001F000FEE7FEE704480549054A064B7047000044
:10020000850B0008ED000008C0080020C00E00208B
:10021000C00A0020C00A00200FB41CB5074B06AA74
:100220007B4469460090059800F035F90020694646
:1002300000F044F91CBC5DF814FB000099020000BA
:100240002DE9F0410646002410687529314616A5AF
:1002500010D0AFF30080002802DA404213A507E077
:1002600031688A0701D512A502E0490704D511A516
:10027000012401E0AFF3008000210A2206F12407E7
:1002800009E0B0FBF2FCB0FBF2F302FB1C003030E3
:1002900078541846491C0028F3D123462A46304694
:1002A000BDE8F04100F099B8000000002D0000000A
:1002B0002B000000200000002DE9F0410F4605460C
:1002C000002028622846E968884770B3252805D0B1
:1002D000D5E901219047286A401CF2E7E9682846E1
:1002E000002688476C2804460AD0682C08D04C2C7D
:1002F00035D06A2C31D0742C31D07A2C2FD016E026
:10030000E968064628468847B042044608D16C2E64
:1003100023D04FF480662846E9688847044606E003
:100320006C2E03D04FF4807601E01EE04026E4B14D
:10033000A4F14100192802D8203446F400663A4658
:10034000214628462E60FFF72FFF60B1012808D014
:10035000FF1D27F007070837B4E78026DBE70026F4
:10036000D9E73F1DAEE72046B2E7286ABDE8F08135
:1003700010B5203AC0F00B80B1E81850203AA0E840
:100380001850B1E81850A0E81850BFF4F5AF5FEA74
:10039000027C24BFB1E81850A0E8185044BF18C927
:1003A00018C0BDE810405FEA827C24BF51F8043BCE
:1003B00040F8043B08BF7047D20728BF31F8023B22
:1003C00048BF11F8012B28BF20F8023B48BF00F8B6
:1003D000012B70477047704770472DE9F0470D4675
:1003E00099469246044600F124080168880604D51F
:1003F000E06921F01001216000E00120A84201DD48
:10040000471B00E00027A1697A1902EB0900081ACE
:10041000A0612078C00602D42046AFF300800026F9
:1004200008E0D4E901211AF806009047206A401C30
:10043000761C20624E45F4DB2078C0060AD52046A3
:10044000AFF3008006E0D4E9012130209047206A14
:10045000401C2062381EA7F10107F4DC07E0D4E954
:10046000012118F805009047206A401C2062281ED0
:10047000A5F10105F3DC2046AFF3008020780006EB
:1004800002D50220BDE8F0870120FBE701694A1C84
:1004900002610878704700B58FB0CDE901310021C5
:1004A000059105497944CDE9031011466846FFF7E7
:1004B00003FF0FB000BD0000E5FFFFFF0A6802F870
:1004C000010B0A607047754600F02CF8AE46050037
:1004D0006946534620F00700854618B020B5FFF75F
:1004E00089FEBDE820404FF000064FF000074FF0B6
:1004F00000084FF0000B21F00701AC46ACE8C00942
:10050000ACE8C009ACE8C009ACE8C0098D4670474A
:1005100010B50446AFF300802046BDE81040FFF759
:1005200055BE0000004870475C08002001491820B3
:10053000ABBEFEE7260002007047000010B54FF486
:100540008061024800F015F910BD0000000801406C
:1005500010B54FF48061024800F009F910BD0000A9
:100560000008014010B54FF4007000F00FF828B1FA
:1005700000F0FAFC4FF4007000F002F810BD00002B
:100580000149086070470000140401400146002042
:100590000022074B1B6803EA0102054B14331B685A
:1005A0000B4013B10AB1012000E0002070470000A9
:1005B000000401402DE9F0410246002500260020FC
:1005C00000230024002791F803C00CF00F0591F8D8
:1005D00003C00CF0100CBCF1000F03D091F802C066
:1005E0004CEA050591F800C0BCF1000F31D0146849
:1005F00000202BE04FF0010C0CFA00F3B1F800C022
:100600000CEA03069E4220D183004FF00F0C0CFA37
:1006100003F7BC4305FA03FC4CEA040491F803C059
:10062000BCF1280F06D14FF0010C0CFA00FCC2F807
:1006300014C00AE091F803C0BCF1480F05D14FF097
:10064000010C0CFA00FCC2F810C0401C0828D1D3E1
:100650001460B1F800C0BCF1FF0F34DD5468002015
:100660002EE000F1080C4FF0010808FA0CF3B1F885
:1006700000C00CEA03069E4221D183004FF00F0C0C
:100680000CFA03F7BC4305FA03FC4CEA040491F8A6
:1006900003C0BCF1280F05D100F1080C08FA0CF8D2
:1006A000C2F8148091F803C0BCF1480F07D100F1E3
:1006B000080C4FF0010808FA0CF8C2F81080401C32
:1006C0000828CED35460BDE8F0810000F0B50A469A
:1006D000002300240021002500F00046B6F1004F61
:1006E00002D11D4EF16901E01B4E7168C0F3034554
:1006F00083B200F44016B6F5401F08D121F07061B6
:10070000154E766826F07066134F7E6012E000F496
:100710008016B6F5801F06D1032606FA05F4A1431C
:1007200041F0706106E0460D360103FA06F6B1436A
:1007300041F0706122B1460D360103FA06F63143ED
:1007400000F00046B6F1004F02D1034EF16101E026
:10075000014E7160F0BD0000000001400246002023
:1007600093680B400BB1012000E00020704741610D
:100770007047016170470AB1016100E04161704753
:1007800008B500F027F80121082000F0FBF84FF42D
:100790008070ADF8000010208DF8030003208DF864
:1007A000020069460A48FFF705FF0121082000F012
:1007B000E9F84FF40070ADF8000010208DF8030048
:1007C00003208DF8020069460148FFF7F3FE08BDDB
:1007D000000C014008B50121082000F0D3F82020CA
:1007E000ADF8000010208DF8030003208DF8020002
:1007F00069461B48FFF7DEFE0121082000F0C2F821
:100800001020ADF800008DF8030003208DF80200E1
:1008100069461348FFF7CEFE0121082000F0B2F828
:100820000820ADF8000010208DF8030003208DF89B
:10083000020069460A48FFF7BDFE0121042000F0CE
:10084000A1F84FF40040ADF8000010208DF803002F
:1008500003208DF8020069460248FFF7ABFE08BD91
:10086000000C01400008014010B5044604F00800E7
:10087000082805D1012201031B48FFF77CFF05E092
:1008800000224FF400411848FFF775FF04F0040000
:10089000042805D1012208211448FFF76CFF04E069
:1008A000002208211148FFF766FF04F00200022829
:1008B00005D1012210210D48FFF75DFF04E0002261
:1008C00010210A48FFF757FF04F0010028B1012268
:1008D00020210648FFF74FFF04E0002220210348B3
:1008E000FFF749FF10BD000000080140000C014067
:1008F000000100BF011EA0F10100FBD1704710B53F
:100900000446204600F02CF810BD000010B5044647
:100910004FF480700849086004F00F00FFF7A4FF4F
:100920000A20FFF7E5FF4FF480700349091D0860B6
:100930000A20FFF7DDFF10BD100C014010B5044682
:10094000142000F099FA4FF4007004490860201157
:10095000FFF7DCFF2046FFF7D9FF10BD140C014064
:1009600010B50446142000F087FA4FF400700449D3
:1009700008602011FFF7CAFF2046FFF7C7FF10BD30
:10098000100C014029B1064A92690243044B9A6156
:1009900004E0034A92698243014B9A617047000068
:1009A0000010024030B500210022002400232D4D0C
:1009B0006D6805F00C0121B1042905D0082923D167
:1009C00005E0294D056022E0274D05601FE0254D1B
:1009D0006D6805F47012234D6D6805F480340225AE
:1009E00005EB92421CB9214D554305600BE01D4DAE
:1009F0006D6805F400351DB11C4D5543056002E0DE
:100A0000194D5543056002E0174D056000BF00BF5A
:100A1000144D6D6805F0F0010909154D6B5C056812
:100A2000DD4045600F4D6D6805F4E061090A104D29
:100A30006B5C4568DD4085600A4D6D6805F460516A
:100A4000C90A0B4D6B5C4568DD40C560054D6D689E
:100A500005F44041890B074D6B5CC568B5FBF3F5A8
:100A6000056130BD0010024000127A0000093D000F
:100A70002C0300203C03002010B500F001F810BD4D
:100A80000CB50020019000903348006840F480309D
:100A90003149086000BF3048006800F40030009021
:100AA0000198401C0190009818B90198B0F5A06F0A
:100AB000F1D12948006800F4003010B10120009005
:100AC00001E0002000900098012843D123480068ED
:100AD00040F01000214908600846006820F003003B
:100AE00008600846006840F0020008601A48406844
:100AF000194948600846406848600846406840F424
:100B0000806048600846406820F47C1048600846D1
:100B1000406840F4E81048600846006840F0807083
:100B2000086000BF0C48006800F000700028F9D091
:100B30000948406820F003000749486008464068BB
:100B400040F00200486000BF0348406800F00C001D
:100B50000828F9D10CBD000000100240002002401E
:100B6000034908600021034A1160034A117070476D
:100B70005C030020580300205403002010B501F04E
:100B80004DFC10BD10B51348006840F0010011493C
:100B9000086008464068104908400E494860084609
:100BA00000680E4908400B4908600846006820F4B8
:100BB000802008600846406820F4FE0048604FF43A
:100BC0001F008860FFF758FF4FF00060044908607D
:100BD00010BD0000001002400000FFF8FFFFF6FE0D
:100BE00008ED00E010B586B0044602940020ADF890
:100BF0000C00ADF80E00ADF81000ADF814000C209C
:100C0000ADF8120001210520FFF7BCFE0121880389
:100C1000FFF7B8FE18208DF807004FF40070ADF80C
:100C2000040003208DF8060001A90B48FFF7C2FC61
:100C300004208DF807000002ADF8040001A9064861
:100C4000FFF7B8FC02A9054800F016F80121034897
:100C500000F006F806B010BD000801400038014061
:100C600021B1828942F40052828104E082894DF6EA
:100C7000FF731A40828170472DE9F04786B0054620
:100C80000E460024A24600BFA1460027B08900B14D
:100C900000BF2F462C8A4CF6FF700440F0880443B6
:100CA0002C82AC894EF6F3100440B0883189084399
:100CB000718908430443AC81AC8A4FF6FF4004407D
:100CC000B0890443AC8201A8FFF76CFE1F4887423D
:100CD00002D1DDF810A001E0DDF80CA0A88900F435
:100CE000004040B10AEBCA0000EB0A10316849002D
:100CF000B0FBF1F807E00AEBCA0000EB0A1031681C
:100D00008900B0FBF1F86420B8FBF0F00401200981
:100D1000642101FB1089A88900F4004040B1322011
:100D200000EBC900B0FBF1F000F00700044308E05D
:100D3000322000EB09106421B0FBF1F000F00F004D
:100D400004432C8106B0BDE8F08700000038014064
:100D500030B504460025802C03DAA4F1200085B2CA
:100D60000EE0002009E00C4931F81010A14203D137
:100D700000F15F018DB202E0401C4428F3D300BFB4
:100D800005EB8501054A02EB41000A22044900F007
:100D90003BF8034830BD0000900300205D260008AA
:100DA00030040020004870471804002010B50446A5
:100DB0000648047001F0B0F80020054908700120D1
:100DC0000449087000200449087010BD0500002087
:100DD00002000020030000200400002008B50146A6
:100DE000002000900888ADF8000088788DF8020097
:100DF00004480078C0F112020098D040009000989A
:100E000008BD00002804002010B50346002003E0C0
:100E10001C5C0C54441CE0B29042F9DB10BDF0B5F0
:100E200003460C461546002023E01E5C06F00F0129
:100E30001E5C321101F002070E4667F35F0601F0F7
:100E4000040706EB870601F0080706EBC7062654E1
:100E500002F00207164667F35F0602F0040706EB8E
:100E6000870602F0080706EBC7064719E655461C39
:100E7000F0B2A842D9DBF0BD0CB50021019110E021
:100E80000021009104E0BDF80010491C89B20091D6
:100E9000BDF800100429F6DBBDF80410491C89B226
:100EA0000191BDF804108142EADB0CBD70B5044627
:100EB0000D4625B101220021052001F074F824B16E
:100EC00001225021204601F06EF870BD10B5044695
:100ED00034B105230622002105A001F0B5F805E094
:100EE0000523062200210BA001F0AEF810BD000082
:100EF0004869E1BB836E207468E1BB8B207472C3C8
:100F0000AA6E206469E1BB876E2074686FE1BAA1A4
:100F1000690000004B69E1BB836D2074726120623F
:100F20006C7565746F6F74682E2E2E000146024832
:100F300050F82100704700003C04002001460248A0
:100F400050F8210070470000BC04002001207047C9
:100F5000042070470FB410B5BDF81A100398FFF7BE
:100F6000FDFB10BC5DF814FB0120014908707047BF
:100F7000600300201CB504460448019400690090F9
:100F800002480FC800F0F7F81CBD00006403002001
:100F900008B504480069009002480FC800F02CF919
:100FA00008BD00006403002008B5044800690090F3
:100FB00002480FC800F04CF908BD0000640300208F
:100FC00008B504480069009002480FC800F06DF8A9
:100FD00008BD0000780300201CB5044604480194B5
:100FE0000069009002480FC800F0C5F81CBD000061
:100FF0007803002008B504480069009002480FC833
:1010000000F0FAF808BD00007803002008B5044895
:101010000069009002480FC800F01AF908BD0000EE
:10102000780300200FB410B501210498FFF7AAFC43
:1010300001210598FFF7A6FCBDF8180005490880B6
:101040001020C870032088700298FFF7B3FA10BC14
:101050005DF814FB8C0300200FB41CB508980090B9
:1010600004A80FC801F018F9012001900898009019
:1010700004A80FC801F074F90420FFF7FDFE0898DA
:10108000009004A80FC8FFF765FF044600200190F8
:101090000898009004A80FC801F062F90420FFF737
:1010A000EBFE20461CBC5DF814FB0FB47CB500249D
:1010B0000A98009006A80FC801F0EEF8002520E07D
:1010C000012001900A98009006A80FC801F048F985
:1010D0000420FFF7D1FE0A98009006A80FC8FFF77A
:1010E00039FF40EA4400C4B2002001900A98009001
:1010F00006A80FC801F034F90420FFF7BDFE681CF4
:10110000C5B2082DDCDB002001900A98009006A8EB
:101110000FC800F004F820467CBC5DF814FB0FB447
:101120001CB5099C0898009004A80FC801F0C4F8E9
:1011300001940898009004A80FC801F023F9042036
:10114000FFF79AFE012001900898009004A80FC8AC
:1011500001F006F90420FFF78FFE002001900898A7
:10116000009004A80FC801F0FBF80420FFF784FEEC
:101170001CBC5DF814FB0FB47CB50B9E80240A9850
:10118000009006A80FC801F097F8002521E0002084
:1011900001900A98009006A80FC801F0E1F804EA4F
:1011A000060001900A98009006A80FC801F0EAF81E
:1011B0000420FFF761FE012001900A98009006A824
:1011C0000FC801F0CDF80420FFF756FE6410681C2C
:1011D000C5B2082DDBDB002001900A98009006A81C
:1011E0000FC801F0BDF80A98009006A80FC8FFF7D5
:1011F00033FF7CBC5DF814FB0FB41CB5089800905D
:1012000004A80FC801F058F8012001900898009038
:1012100004A80FC801F0B6F80420FFF72DFE012046
:1012200001900898009004A80FC801F099F80420D4
:10123000FFF722FE002001900898009004A80FC834
:1012400001F0A0F80420FFF717FE1CBC5DF814FBAA
:101250000FB41CB50898009004A80FC801F02CF832
:10126000002001900898009004A80FC801F08AF8A7
:10127000012001900898009004A80FC801F070F8B0
:101280000420FFF7F9FD012001900898009004A8C0
:101290000FC801F077F80420FFF7EEFD1CBC5DF8E5
:1012A00014FB000008B501210820FFF76BFB0420A8
:1012B000ADF800008DF8030069460948FFF77AF998
:1012C00001210820FFF75EFB0820ADF80000042094
:1012D0008DF8030069460248FFF76CF908BD00006D
:1012E000000C014008B504480069009002480FC88E
:1012F000FFF798FE08BD00006403002008B504480D
:101300000069009002480FC8FFF78CFE08BD00007E
:101310007803002038B501210420FFF733FB4FF498
:101320000040ADF8000010208DF8030003208DF878
:10133000020069462F48FFF73DF901210C20FFF715
:1013400021FB01210820FFF71DFBFFF719FA43F6E7
:101350009820FFF7CDFA4FF400702749086003206A
:10136000FFF7D4FA43F69820FFF7C2FA0320FFF7FD
:10137000CDFA43F69820FFF7BBFA0320FFF7C6FA31
:1013800043F69820FFF7B4FA0220FFF7BFFA43F6BE
:101390009820FFF7ADFA2820FFF7D0FA43F69820FF
:1013A000FFF7A6FA0C20FFF7C9FA43F69820FFF7DB
:1013B0009FFA0620FFF7C2FA43F69820FFF798FA43
:1013C0004020FFF7BBFA43F69820FFF791FA0B4D48
:1013D000002404E02878FFF792FA641C6D1C402C6E
:1013E000F8D38020FFF7AAFA43F69820FFF780FA97
:1013F00038BD000000080140140C0140AB32000869
:1014000008B501210420FFF7BDFA4FF48060ADF864
:10141000000010208DF8030003208DF802006946BB
:101420001C48FFF7C7F801210820FFF7ABFA4FF47B
:101430000040ADF8000003208DF8020010208DF868
:10144000030069461448FFF7B5F801210820FFF7AB
:1014500099FA4FF40050ADF8000003208DF8020017
:1014600010208DF8030069460B48FFF7A3F801210F
:101470000820FFF787FA4FF48040ADF80000032002
:101480008DF8020010208DF8030069460248FFF72E
:1014900091F808BD00080140000C014000B587B07C
:1014A0001C2205A16846FEF763FF00221921684649
:1014B00000F014FF07B000BDAED580A83FD30040B8
:1014C0008D14A0C0DA1281CFD9F1DB40A4A6200090
:1014D000AF00000010B500F019F84FF41650FFF7F8
:1014E00081FB6420FFF73CFBFFF714FFFFF7FAFED8
:1014F000FFF704FFFFF7D2FFFFF7D4FEFFF780FFEF
:1015000000F022FA00F008FD10BD000030B51648CA
:1015100000684FF47A72B0FBF2F1B1F1807F01D331
:1015200001201DE021F07F40401E4FF0E02250617D
:1015300050170F22002807DA13071D0E0B4B00F07F
:101540000F04241F1D5503E013071C0E084B1C54E9
:1015500000BF00204FF0E0229061072010610020C2
:1015600008B100BFFEE730BD4003002018ED00E0E9
:1015700000E400E070B5054600240AE02046FFF7CD
:10158000DDFC42F21071884201D2002070BD601C67
:10159000C4B2AC42F2DB0120F8E7000088B04FF0A3
:1015A0000008C14601210846FFF7ECF90121B948BE
:1015B000FFF78CF8FFF78EFF00F0AEFC00BF0024B1
:1015C00066E100BFB44800780028FBD00020B24993
:1015D0000870C8F101001FFA80F8B8F1000F02D0BE
:1015E000FEF7B6FF01E0FEF7A9FF00F033FEFFF7BC
:1015F000AFFCAA490870FFF7A9FCA9490870A948DF
:10160000007828B108460178A4480078FFF74EFC1E
:10161000A5480078C0B1A3480078012807D0A148A8
:101620000078032803D09F480078042806D10523BA
:1016300001226E219DA000F007FD05E00523012297
:101640006E219BA000F000FD9648007806287DD210
:10165000DFE800F003257CA943FA9648007898B9A2
:1016600005230722002194A000F0EEFC05230322AD
:10167000022197A000F0E8FC01208E4908700020AC
:10168000894908704FF01409B9F10000A9F101016E
:101690001FFA81F902D10120FFF788FBF7E08548A6
:1016A000007868B90523072200218EA000F0CCFC49
:1016B00001208049087000207B49087000F082F901
:1016C00000F00EFC10B10520FFF770FB00F08AFE61
:1016D00010B10320FFF76AFBD9E0764800780028B4
:1016E0004ED101207349087000206F4908704FF0F7
:1016F000050904A806A905AA07ABCDE900210290B7
:101700007F4A64217F4800F08DF97F49069888421E
:1017100002D00798884203D10320FFF747FBB6E0C9
:1017200005230422002179A000F08EFC0523072266
:1017300000217AA000F088FC07222D21252000F04E
:101740000AFC05230422412176A000E09EE000F07F
:101750007BFC05230422322173A000F075FC0523D5
:1017600007221E2170A000F06FFC0422322106988F
:1017700000F056FC07221E21079800F051FC86E07D
:10178000B9F10000A9F101011FFA81F90AD1032082
:1017900044490870002047490870012042490870F8
:1017A0006249087073E043480078C8B90120414994
:1017B000087000203C49087000245C48007860B93B
:1017C00000F007F905230422002159A000F03CFC99
:1017D00007220F21252000F0BEFB00F077FC56E029
:1017E00000F074FC07465148007850B905230722E1
:1017F00000214DA000F028FC07220021204600F027
:101800000FFC002512E02819C6B2642E00DB0FE0A1
:101810002846FFF78BFB3A4941F826002846FFF798
:101820008DFB384941F82600681CC5B2BD42EADB91
:1018300000BFE019C4B23846FFF79CFE6043C4B253
:10184000642C02DD642001E00DE020460446642C97
:1018500002DB0420FFF7AAFA00F042FB10B10120DE
:10186000FFF7A4FA13E01348007840B900F0AAF893
:101870000B480078FFF72AFB01200E49087000F0A2
:101880002FFB10B10120FFF791FA00E000BF00BF6D
:1018900097E6000000023000540300200000002002
:1018A0000100002005000020030000207070670088
:1018B0006563670002000020506869C3AA6E206259
:1018C000E1BAA36E2064656D6F20762E31000000B2
:1018D0004E68C3B36D2033202D20506F7765722082
:1018E0006F6E00004E68E1BAA56E206EC3BA742018
:1018F000535441525420C491E1BB8320C4916F00E2
:10190000080000209801002019FCFFFF4E68E1BB91
:101910008B702074696D3A200000000053704F32C4
:101920003A20000062706D0020202000040000209A
:10193000C490616E67206CE1BAA579206DE1BAAB05
:10194000752E2E2E000000003EB500F02DFD0A255C
:1019500018A207CA8DE807009DF80100022801D1EE
:10196000012000E0022016490870FFF743FBAE207B
:10197000FFF732FB08B101203EBD0820FFF72CFB2A
:1019800008B10220F8E7002409E01DF80400FFF781
:1019900023FB10B1E01CC0B2EEE7601CC4B20A2CFD
:1019A000F3DBFFF733FB80227F21022000F0F4FB02
:1019B0000020E1E7508327001F1F000000210000E6
:1019C0002704002010B500227F21092000F0E4FB4D
:1019D00010BD10B500227F21092000F0DDFB10BDF5
:1019E0002DE9F84705460C4616461F46DDE90A9ADA
:1019F000DDF824803B46324621462846CDF800805B
:101A000000F0BCF94B4632462146284600F0F3F977
:101A10002068504501DA206800E050462060BDE8AB
:101A2000F88700002DE9FF4FA4B0824688460020C9
:101A30000C900B902390002405E05AF82410239872
:101A400008442390641C4445F7DB2398B0FBF8F06E
:101A50002390002408E05AF824102398081A4042E2
:101A6000C24941F82400641C4445F4DB002417E01B
:101A7000BE4951F824200B46611C53F821100A443A
:101A8000A11C53F821100A44E11C53F821105018EE
:101A9000C11700EB917189101A4642F82410641C9A
:101AA000602CE5DB0027002404E0B04850F8240057
:101AB0000744641C642CF8DB642097FBF0F71E2FAE
:101AC00000DA1E273C2F00DD3C27002404E0002024
:101AD00012A941F82400641C0F2CF8DB0F20CDE97B
:101AE00000706423A14A21A9029012A8FFF778FF91
:101AF0004FF0000B219802281CDB012409E012A8FA
:101B000050F82410601E12AA52F82000081A8344CC
:101B1000641C21988442F2DB2198401E9BFBF0FB61
:101B200040F2DC5090FBFBF13298016001213398C8
:101B3000017005E08E4932980160002133980170F0
:101B400000240BE05AF82400884941F82400269824
:101B500050F82400874941F82400641C4445F1DB17
:101B600021982290002005900026002404E0002007
:101B700006A941F82400641C052CF8DB00240EE0C3
:101B800012A850F82400642808DD794927980160DC
:101B900000213198017028B0BDE8F08F641C2298B4
:101BA0008442EDDB0024A6E04FF07F400E900D90C4
:101BB00012A9601C51F8200051F82410401A032883
:101BC0007EDD12A850F8245016E0684850F8251021
:101BD0000D98814204DD654850F825000D900B9565
:101BE000644850F825100E98814204DD614850F891
:101BF00025000E900C956D1C12A9601C51F8200058
:101C0000A842E2DC601C51F820005A4951F820003B
:101C100012A951F82410574A52F82110401A12A95B
:101C200051F824200C99891A4843119012A9601C7C
:101C300051F8200051F82410411A119890FBF1F04E
:101C400012A951F824104B4A52F82110084411905F
:101C500011460C9851F820101198081A119012A9E9
:101C6000601C51F82000414951F8200012A951F898
:101C700024103E4A52F82110401A12A951F824208B
:101C80000B99891A4843109012A9601C51F8200042
:101C900051F82410411A109890FBF1F012A951F854
:101CA0002410324A52F821100844109011460C9822
:101CB00051F820101098081A10900D99119800E012
:101CC00018E04843C01104900E9910984843C01181
:101CD0000390039800280DDD052E0BDA049848B117
:101CE000642104984843039990FBF1F006A941F858
:101CF0002600761C641C2298401EA0423FF754AF79
:101D0000314606A800F0B0F8304606EBD0714FEA35
:101D10006109B9F1010F0CDDA9F1010106AA52F820
:101D2000211052F82920881800EBD0714910059134
:101D300003E006A850F829000590059802280DDD5B
:101D40000598B8280ADA0C490598085C0F9027997D
:101D50000F98086001213198017005E00449279827
:101D6000016000213198017000BF14E73C0500209C
:101D700019FCFFFFCC060020EB320008F0B5054649
:101D80001C46059E012000270F6030E052F82070AD
:101D9000B7422BDD52F820C0471E52F82770BC45D1
:101DA00024DD012300E05B1CC718A74207DA52F8C4
:101DB000207000EB030C52F82CC06745F3D052F8AA
:101DC000207000EB030C52F82CC067450CDD0F6847
:101DD0000F2F09DAD1F800C00CF101070F6045F8A8
:101DE0002C005F1C384402E0184400E0401C671ED1
:101DF0008742CBDCF0BD2DE9F04F05460C469246FC
:101E0000984629465046226800F049F84FF0FF36C0
:101E100021E0D4F800B0701C2060771C18E055F861
:101E20002710701C10B94FF0FF3001E055F8260064
:101E3000A1EB0009C14503DCC8F10000814506DAC9
:101E400055F827102268501C206045F822107F1C8E
:101E50005F45E4DB761C2068B042DADC2846216866
:101E600000F002F8BDE8F08F30B50C46012213E017
:101E700050F82230114605E04D1E50F8255040F82C
:101E80002150491E002904DD4D1E50F825509D4269
:101E9000F2DC40F82130521CA242E9DB30BDF0B543
:101EA00003461546012217E051F82240104605E08E
:101EB000461E51F8266041F82060401E002808DDCB
:101EC00053F82470461E51F8266053F82660B74236
:101ED000EEDC41F82040521CAA42E5DBF0BD0000D8
:101EE0000B480188002209B901220AE0094800884C
:101EF00008B9012205E007480088081A052800DD16
:101F000001221AB103480180C8B270470020FCE7E3
:101F10002A0400202803002070B50021084600F0A4
:101F200009FAFFF735F87820FFF724F84020FFF78B
:101F300021F800240AE0002504E00020FFF71AF849
:101F4000681CC5B2802DF8DB601CC4B2082CF2DB23
:101F5000FFF72AF870BDFEB507460D461446384611
:101F6000FEF7F6FE064605226946701DFEF757FF8E
:101F7000A01EC1B205236A46284600F0C9F9601EBA
:101F8000C1B205230DF10502284600F0C1F9052272
:101F900069463046FEF743FF05236A462146284638
:101FA00000F0B6F9FEBD2DE9F04385B0074688463E
:101FB00014460A250526052F16D1FEF7F3FE8146A5
:101FC000324669464846FEF72AFF601EC1B23346D4
:101FD0006A46404600F09CF90DEB06023346214666
:101FE000404600F095F917E0384600F05DF881466C
:101FF0002A4669464846FEF712FF601EC1B22B46CC
:102000006A46404600F084F90DEB05022B46214656
:10201000404600F07DF900BF00BF05B0BDE8F08389
:1020200070B586B004460D461646224605A16846A0
:10203000FEF7F2F8052332462946684600F004F818
:1020400006B070BD256C64002DE9F04104460E46D3
:1020500090461F46207808B9BDE8F0812078802896
:1020600001DA257811E02078CF2807DA6178207826
:10207000002200F0EBF985B2641C06E0A2786178DA
:10208000207800F0E3F985B2A41C42463146284688
:10209000FFF761FFF019C1B23B464246601CFFF7F3
:1020A000D3FF00BFD8E7000010B50246002106E0CC
:1020B0002D20C1F10703044CE054481CC1B29142E9
:1020C000F6DB014810BD00001D0400202DE9FC4195
:1020D00000F0ADF846B22D480078704300EB4000A8
:1020E000C7B2FEF787FFAE20FEF776FF10B10020E3
:1020F000BDE8FC810720FEF76FFF08B10020F7E77D
:10210000FEF778FFAF20FEF767FF08B10020EFE78A
:10211000002532E0002407E0FEF752FFC4F102017F
:1021200001AA5054601CC4B2032CF5DB01A8FEF7D1
:1021300055FE29466A1CD5B2154A42F821001348BB
:102140000078012812DD002407E0FEF739FFC4F112
:1021500002010DF80100601CC4B2032CF5DB6846D7
:10216000FEF73CFE691E0B4A42F821000748007842
:10217000032101FB1070C7B200BF002FCADCFEF7BD
:1021800045FF002000F019F8F0B2B1E72704002065
:10219000BC0400203C0400202DE9F04107460D4618
:1021A0001646384600F009F804462C4034432146D0
:1021B000384600F021F8BDE8F08170B50446FEF71E
:1021C00019FFAE20FEF708FF08B1FF2070BD2046C2
:1021D000FEF702FF08B1FF20F8E7FEF70BFFAF2084
:1021E000FEF7FAFE08B1FF20F0E7FEF7E9FE05462C
:1021F000FEF70CFF2846E9E770B505460C46FEF7EA
:10220000F9FEAE20FEF7E8FE08B1012070BD2846B9
:10221000FEF7E2FE08B10120F8E72046FEF7DCFEFB
:1022200008B10120F2E7FEF7F1FE0020EEE770B5FD
:102230000620FFF7C2FF45B20420FFF7BEFF46B2FB
:10224000701B44B2002C02DA04F1200000E02046AA
:10225000C0B270BD10B504210D48FEF77FFA28B951
:102260000C480088401C0B49088002E00020094906
:10227000088008210648FEF771FA28B90548408809
:10228000401C0449488002E000200249488010BDFB
:10229000000C01402A0400200FB410B5BDF81A004C
:1022A000044908800420C8700398FEF783F910BC25
:1022B0005DF814FB8C0300200FB410B5BDF81A00B4
:1022C000054908801020C870032088700398FEF725
:1022D00071F910BC5DF814FB8C0300202DE9F0416E
:1022E00005460E461746FEF753FE7820FEF742FEDF
:1022F0003846FEF73FFE002404E0285DFEF73AFE74
:10230000601CC4B2B442F8DBFEF74EFEBDE8F081BB
:102310002DE9F04106460F4614461D463946304623
:1023200000F008F8402229462046FFF7D7FFBDE815
:10233000F08100007CB505460C4607A103C9CDE934
:1023400000018DF801508DF80440002206216846F6
:10235000FFF7C4FF7CBD000021007F2200070000C2
:102360000FB410B5079C2CB1BDF818100298FEF7F9
:1023700000FA04E0BDF818100298FEF7F8F910BC56
:102380005DF814FB0FB410B5079C2CB1BDF81A1002
:102390000398FEF7EEF904E0BDF81A100398FEF773
:1023A000E6F910BC5DF814FB70B54022BF2109208E
:1023B000FFF7F2FE00246420FEF75EFD0BE009202B
:1023C000FFF7FBFE054605F0400000B908E0642079
:1023D000FEF752FD00BF2046611CCCB26428EEDB44
:1023E00000BF70BD0B484188002209B901220AE0F4
:1023F0000948008808B9012205E007480088081A42
:10240000052800DD01221AB103480180C8B27047D7
:102410000020FCE72A0400202A0300200848006866
:10242000401C074908600846006806490968884258
:1024300005D3002002490860012003490870704755
:10244000580300205C0300205403002010B503460D
:102450000020802B01DA184612E0E02B06DA03F0A8
:102460001F00800101F03F04204309E003F00F004A
:10247000800101F03F042043800102F03F0420432B
:1024800010BD000000000000005F0000000300031A
:1024900000143E143E14242A7F2A12433308666136
:1024A00036495522500005030000001C224100005F
:1024B00041221C0014083E081408083E0808005079
:1024C00030000008080808080060600000201008BC
:1024D00004023E5149453E0004027F0042615149D9
:1024E0004622414949361814127F1027454545397F
:1024F0003E494949320101710907364949493626A1
:102500004949493E0036360000005636000008149E
:102510002241001414141414004122140802015121
:1025200009063E4159555E7E0909097E7F494949A0
:10253000363E414141227F4141413E7F4949494127
:102540007F090909013E4141493A7F0808087F0097
:10255000417F4100304040403F7F081422417F408E
:102560004040407F020C027F7F0204087F3E4141D1
:10257000413E7F090909061E2121215E7F090909C3
:1025800076264949493201017F01013F4040403FE1
:102590001F2040201F7F2010207F41221C22410746
:1025A000087008076151494543007F41000002045B
:1025B0000810200000417F00040201020440404056
:1025C0004040000102040040A9AAA8F07F4444440E
:1025D000383844444444384444447F3854545418AC
:1025E00004047E0505085454543C7F080404780014
:1025F000447D40002040443D007F102844000041BD
:102600007F40007C047804787C08040478384444D3
:1026100044387C14141408081414147C007C080436
:1026200004485454542004043F44443C4040207C1B
:102630001C2040201C3C4030403C44281028440CC6
:102640005050503C4464544C440008364141000012
:102650007F00004141360800020102040200000030
:102660000000000000000000000200000000F80070
:102670000000000000000018001800000100010028
:10268000A0F0A0F0A001010301002050F85090023A
:102690000100030318984030080102020102B0480B
:1026A000A8108000000000000028180000000001B1
:1026B000020000E01008000002010000000810E025
:1026C000000000010000A040F040A0000001000058
:1026D0004040F04040000201000000808000000007
:1026E00000000000404040404000030300000000A4
:1026F00000000001000000000080402010010202E4
:102700000201F0884828F00000000300002010F8C3
:10271000000203020202100888483001020202018E
:1027200010084848B00000000300C0A090F88001E5
:102730000202020138282828C80102020201F048DA
:102740004848900000030000080888483801020249
:102750000201B0484848B00102020201304848482E
:10276000F0000101000000B0B00000000201000014
:1027700000B0B00000000001020040A010080000FE
:1027800000000000A0A0A0A0A0000201000000081E
:1027900010A040000002000010088848300102022A
:1027A0000202F008C8A8F00300000003F0484848FF
:1027B000F00302020201F8484848B0010202020197
:1027C000F0080808100302020201F8080808F003E4
:1027D00002020202F8484848080300000000F848D6
:1027E0004848080102020201F0080848D00300002E
:1027F0000003F8404040F800020302000008F80817
:1028000000010202020180000000F8030000010242
:10281000F840A010080302020202F80000000003C2
:1028200000000003F8106010F80300000003F81027
:102830002040F80102020201F0080808F00300003D
:102840000000F8484848300001010102F00808087B
:10285000F00300000003F8484848B00102020201FA
:10286000304848489000000300000808F8080801B4
:1028700002020201F8000000F80001020100F80065
:102880000000F80301000103F8008000F8020100D5
:1028900001020810E01008000003000038408040EA
:1028A00038030202020208884828180003020000C8
:1028B00000F8080000000000000110204080000027
:1028C00000020300000008F80000000000002010D3
:1028D00008102002020202020000000000000000B6
:1028E00000000008102000010202020300A0A0A0C6
:1028F000C00302020201F8202020C00102020202ED
:10290000C0202020200102020203C0202020F80164
:1029100002020200C0A0A0A0C0000003000020200E
:10292000F028280005050503C0202020E003000052
:102930000003F8402020C000020302000020E8004D
:10294000000102020100000020E800030001020073
:10295000F88040200000020302000008F800000395
:1029600000030003E020C020C00300000003E0409B
:102970002020C00102020201C0202020C00300006C
:102980000000E0A0A0A040000000000340A0A0A024
:10299000E0000300000000E04020200202020201EB
:1029A00040A0A0A00000000102022020F820200189
:1029B00002020103E0000000E00001020100E0006B
:1029C0000000E00102010201E0008000E0020100DD
:1029D000010220408040200005050503E0000000C2
:1029E000E002030202022020A06020000001020297
:1029F0000040B0080800000300000000F8000002DA
:102A0000020100000808B0400000000000001008AB
:102A10001020100102020103E0000804E00102029C
:102A20000103E0040800E00102020103E4020408DB
:102A3000E40102020103E0040C00E001020A0103C8
:102A4000E0000000E00102020100E00000E03001CF
:102A500002020100E00008E4300102020100E0048B
:102A600008E0300102020100E20102E43401020246
:102A70000100E0040CE03001020A0100E00000E087
:102A8000300102020200C0A0A8A4C001020202009C
:102A9000C0A4A8A0C00102020200C4A2A4A8C4014C
:102AA00002020200C0A4ACA0C001020A0200C0A041
:102AB000A0A0C00102020200C0A8A4A8C001020296
:102AC0000200C2A9A4A8C00102020200C0A8A4A9D1
:102AD000C2030505050182514A5482010202020027
:102AE000C0A8A4A9C301020A0200C0A8A4A8C000EB
:102AF000020302000020E804000002030200002498
:102B0000E8000000020302000422EC0804000203B3
:102B100002000024EC000000020B02000020E8008C
:102B2000000005050503E0000804E00005050503B5
:102B3000E0040800E00005050503E4020408E400E1
:102B400005050503E0040C00E000020A02017080A4
:102B50008080F0010202020300A0A4A8C0010202CA
:102B6000020300A0A8A4C0010202020304A2A4A8B8
:102B7000C4010202020300A4ACA0C001020A0203C5
:102B800000A0A0A0C001020A020304A8A8A4C002D9
:102B9000050505070850524980020505050708513B
:102BA00052488002050505070A51524C820205056C
:102BB0000507085153488001020A020104A8A8A48D
:102BC000C0010202020300A8A4A8C001020202037D
:102BD00002A9A4A8C0010202020300A8A4A9C2027B
:102BE0000505050702514A5482010202020300A8AA
:102BF000A5ABC001020A020300A8A4A8C0010202FA
:102C00000201C0202824C00102020201C0202428A1
:102C1000C00102020201C4222428C40102020201EE
:102C2000C0242C20C001020A0201C0202020C001C3
:102C300002020201C0282428C00102020201C229A6
:102C40002428C00102020201C0282429C20304046E
:102C5000040382514A5482030404040380504953FC
:102C60008001020A0201C0282428C00102020201D8
:102C7000C0202028D80102020201C2242028D80145
:102C800002020201C0242228D801020A0201C02047
:102C90002028D80102020201C2262028D8030404F9
:102CA000040382414254B20102020302804048FC04
:102CB00008000302020140F84808F000000000008C
:102CC0000000000000000000000000000000F8000C
:102CD000000000000000333000000000100C06105F
:102CE0000C0600000000000000000040C07840C05A
:102CF000784000043F04043F040400007088FC088E
:102D0000300000001820FF211E0000F008F000E055
:102D100018000000211C031E211E0000F00888700E
:102D20000000001E2123241927211010160E000078
:102D30000000000000000000000000000000E0189B
:102D4000040200000000071820400000020418E000
:102D50000000000040201807000000404080F08084
:102D60004040000202010F01020200000000F000DA
:102D70000000000101011F0101010000000000002E
:102D800000000080B07000000000000000000000A3
:102D9000000000000101010101010100000000002C
:102DA0000000000030300000000000000000008043
:102DB000601804006018060100000000E010080818
:102DC00010E000000F102020100F00001010F8007D
:102DD0000000000020203F202000000070080808AC
:102DE00088700000302824222130000030088888B4
:102DF0004830000018202020110E000000C02010D4
:102E0000F8000000070424243F240000F808888804
:102E10000808000019212020110E0000E010888809
:102E2000180000000F112020110E0000380808C8FB
:102E30003808000000003F0000000000708808080B
:102E4000887000001C222121221C0000E0100808CC
:102E500010E0000000312222110F00000000C0C06D
:102E60000000000000003030000000000000800082
:102E70000000000000806000000000000080402092
:102E800010080000010204081020004040404040AB
:102E9000404000040404040404040000081020401E
:102EA000800000002010080402010000704808089B
:102EB00008F0000000003036010000C030C828E8EB
:102EC00010E0000718272423140B000000C038E08E
:102ED000000000203C23020227382008F888888858
:102EE000700000203F202020110E00C0300808088C
:102EF000083800071820202010080008F8080808E3
:102F000010E000203F202020100F0008F88888E8FB
:102F1000081000203F20202320180008F88888E8A7
:102F2000081000203F200003000000C030080808FF
:102F300038000007182020221E020008F8080000B0
:102F400008F808203F210101213F20000808F80867
:102F50000800000020203F2020000000000808F8A2
:102F6000080800C08080807F00000008F888C02822
:102F7000180800203F20012638200008F80800002B
:102F8000000000203F20202020300008F8F800F842
:102F9000F80800203F003F003F200008F830C00044
:102FA00008F808203F200007183F00E01008080834
:102FB00010E0000F10202020100F0008F80808086B
:102FC00008F000203F210101010000E0100808087E
:102FD00010E0000F18242438504F0008F888888823
:102FE000887000203F2000030C3020007088080803
:102FF0000838000038202121221C00180808F80891
:103000000818000000203F2000000008F808000019
:1030100008F808001F202020201F000878880000E2
:10302000C83808000007380E010000F80800F80052
:1030300008F800033C0700073C030008186880807C
:1030400068180820302C03032C30200838C800C82A
:103050003808000000203F2000000010080808C8C1
:103060003808002038262120201800000000FE0229
:103070000202000000007F40404000000C30C00011
:10308000000000000000010638C00000020202FE3D
:10309000000000004040407F0000000000040202E9
:1030A000020400000000000000000000000000001A
:1030B0000000008080808080808080000202040008
:1030C0000000000000000000000000000080808080
:1030D0008000000019242222223F2008F80080806E
:1030E000000000003F112020110E00000000808031
:1030F000800000000E1120202011000000008080C0
:1031000088F800000E112020103F200000808080F1
:10311000800000001F222222221300008080F088FD
:103120008888180020203F20200000000080808038
:10313000808000006B94949493600008F800808075
:10314000800000203F210000203F20008098980050
:103150000000000020203F20200000000000809898
:1031600098000000C08080807F000008F800008088
:10317000808000203F24022D302000000808F80045
:103180000000000020203F20200000808080808000
:10319000808000203F20003F20003F808000808012
:1031A000800000203F210000203F20000080808020
:1031B000800000001F202020201F008080008080D1
:1031C00000000080FFA12020110E00000000808080
:1031D000808000000E112020A0FF80808080008071
:1031E00080800020203F212000010000008080809E
:1031F0008080000033242424241900008080E08093
:103200008000000000001F202000008080000000DF
:10321000808000001F202020103F20808080000040
:1032200080808000010E3008060100808000800050
:103230008080800F300C030C300F000080800080F5
:103240008080000020312E0E312000808080000020
:1032500080808080818E70180601000080808080D0
:103260008080000021302C222130000000000080EE
:103270007C020200000000003F404000000000FF10
:1032800000000000000000FF0000000002027C803F
:103290000000000040403F00000000000601010265
:1032A0000204040000000000000000000000000014
:1032B0000000001010101010101010181818181816
:1032C0001818181C1C1C1C1C1C1C1C1E1E1E1E1E40
:1032D0001E1E1E1F1F1F1F1F1F1F1F00000000009C
:1032E00000000000000000000000005F5F5F606001
:1032F00060616161616162626262626363636363B0
:103300006363636464646464646464646464646480
:103310006464646464646463636363636363636277
:10332000626262626261616161606060605F5F5F92
:103330005E5E5E5D5D5D5C5C5C5B5B5A5A595959D3
:103340005858575756565555545453525251515038
:10335000504F4E4E4D4C4C4B4A4A494848474645C3
:10336000454443424241403F3E3E3D3C3B3A393872
:103370003837363534333231302F2E2D2C2B2A2945
:1033800028272625242322211F1E1D1C1B1A19173E
:103390001615141311100F0E0C0B0A09070605035E
:1033A00002010000C43300080000002030040000C7
:1033B00028010008AC36000830040020900A000004
:1033C0008C0100085200011006BD8E11004C041241
:1033D0004D0412710412CB0412C10812CF0412D191
:1033E0000C52BA0812F12810060D8F110033041286
:1033F0002E0812470C523004124C0412F22C12A662
:103400003012AC2C12EC5412222812262812380842
:10341000121C2012FB141219141225141237341224
:103420004A04124838125B4C123C04123B58122AD0
:103430004852DA7412C64812E97812F4381215703C
:10344000123D6412EA1412DF1812E68C12014C438A
:10345000238F94120E64120F6812169C432C8F1C3B
:1034600012A1D012569412854C12C5D812C73C1224
:10347000D83C12E06012B06412B76852B9DC52D87E
:103480005812FA5C92E16425001286801213D0165D
:103490001D20165F24126DE412A8EC52951C1272C6
:1034A0000C168C3412BC5412B25452B8BC12D65002
:1034B00052F650251012C93C566068166B2C12A3A8
:1034C0008812AD1852C81C16A73C12AB1C100A611A
:1034D000E41500E2E21500B104100667E3150029C7
:1034E00010127D1412A80412840C124D10125F24C5
:1034F00012B70C100608E515005204126904128F69
:103500000412880812910412A30412CC34129D40B4
:1035100012870412515412EF3C12392C125A3412F1
:10352000102012CB1412F714122B3812741012A59B
:103530001412C20412BC0812BE2012CA5012840413
:1035400012839012BE88121B504392E43C125F78A3
:1035500012496412F01C12BB4812FD98523D181219
:103560008C8052955012B15052B89C1244BC1248F3
:103570009012B1941264E452D24C431CE5CC5280B8
:103580004C4301E54C126298526C04126588127823
:1035900078125C3016182016E11C12124C12D3DC83
:1035A0001242E8569410126A64163F30166E2016C6
:1035B000AB2012034C161E24124CF81258E8567118
:1035C0002821A01236C016D660121C4816DB28121D
:1035D0007C5816DD10431FE5D052BA906D280320A9
:1035E000050102030404A00D0607080902040608E9
:1035F00000A24A041C2118712C6D5D0320040C01EB
:10360000400412080B2104000414400080141D889B
:10361000033091FA00F9006901E71EE51EB001E9E7
:103620001EEB1EEF1EED1EF11EE900E800BD1EBBE5
:103630001EB91EEA00BF1EC11EC51EC31EC71EED59
:1036400000EC002901C91ECB1EFD00F31EF91EF778
:103650001EF51EE000E100E300A31EA11E0301AF62
:103660001EB11EB51EB31EB71EE200A51EA71EABDF
:103670001EA91EAD1EF300F200F500CF1ECD1EF4F4
:1036800000D11ED31ED71ED51ED91EA101DD1EDB03
:103690001EE31EDF1EE11E1101100122147F2A14F9
:0C36A0000C1E210154053F000112020025
:04000005080000ED02
:00000001FF
