:020000040800F2
:10000000E8130020D1010008D9010008DB01000835
:10001000DD010008DF010008E10100080000000028
:10002000000000000000000000000000E3010008E4
:10003000E501000800000000E7010008710F00085A
:10004000EB010008EB010008EB010008EB010008E0
:10005000EB010008EB010008EB010008EB010008D0
:1000600071090008EB010008EB010008EB01000832
:10007000EB010008EB010008EB010008EB010008B0
:10008000EB010008EB010008EB010008EB010008A0
:10009000EB010008EB010008EB010008EB01000890
:1000A000EB010008EB010008EB010008EB01000880
:1000B000EB010008EB010008EB010008EB01000870
:1000C000EB010008EB010008EB010008EB01000860
:1000D000EB010008D90F000879110008EB010008B6
:1000E0005D090008EB010008EB01000800F002F8D0
:1000F00000F05FF80AA090E8000C82448344AAF163
:100100000107DA4501D100F054F8AFF2090EBAE860
:100110000F0013F0010F18BFFB1A43F0010318473B
:10012000F0510000105200000A444FF0000C10F88B
:10013000013B13F0070408BF10F8014B1D1108BF65
:1001400010F8015B641E05D010F8016B641E01F805
:10015000016BF9D113F0080F1EBF10F8014BAD1C55
:100160000C1B09D16D1E58BF01F801CBFAD505E073
:1001700014F8016B01F8016B6D1EF9D59142D6D3CD
:10018000704700000023002400250026103A28BFF5
:1001900078C1FBD8520728BF30C148BF0B607047F9
:1001A000642900F0C180002070471FB51FBD10B545
:1001B00010BD00F0FCF91146FFF7F7FF01F090FECB
:1001C00000F01AFA03B4FFF7F2FF03BC00F022FAC2
:1001D0000948804709480047FEE7FEE7FEE7FEE7DB
:1001E000FEE7FEE7FEE7FEE7FEE7FEE70448054917
:1001F000054A064B70470000790F0008ED00000823
:10020000E80D0020E8130020E80F0020E80F002090
:1002100053EA020C00F069802DE9F04B4FF0000624
:10022000002B1FBFB3FA83F503FA05F424FA05F691
:100230005E4012BF1643B2FA82F502FA05F4C5F128
:1002400020051EBF22FA05FC44EA0C04203556EABC
:10025000044C4FEA144418BF641C4FF000084FF0E0
:100260000009904271EB030C39D3002919BFB1FA90
:1002700081F701FA07F6B0FA80F700FA07F6C7F13E
:1002800020071EBF20FA07FC46EA0C062037B6FB03
:10029000F4FCA7EB0507103F07F01F0BCBF120067E
:1002A0000CFA0BFB2CFA06F644BFB3460026202FAF
:1002B000A4BF5E464FF0000B5BEA060C08BF4FF090
:1002C000010B19EB0B09ABFB027C48EB0608C01BCA
:1002D00006FB02CC0BFB03CC71EB0C01C1E70B4618
:1002E000024641464846BDE8F08B13B54FF000008A
:1002F0004FF00001AFF30080BDE81C4070470000E4
:100300000FB41CB5074B06AA7B44694600900598BC
:1003100000F035F90020694600F044F91CBC5DF896
:1003200014FB0000990200002DE9F041064600246C
:1003300010687529314616A510D0AFF3008000284B
:1003400002DA404213A507E031688A0701D512A5F9
:1003500002E0490704D511A5012401E0AFF30080B4
:1003600000210A2206F1240709E0B0FBF2FCB0FBF1
:10037000F2F302FB1C00303078541846491C002868
:10038000F3D123462A463046BDE8F04100F099B843
:10039000000000002D0000002B00000020000000E5
:1003A0002DE9F0410F460546002028622846E968FD
:1003B000884770B3252805D0D5E901219047286AE0
:1003C000401CF2E7E9682846002688476C28044666
:1003D0000AD0682C08D04C2C35D06A2C31D0742C23
:1003E00031D07A2C2FD016E0E96806462846884797
:1003F000B042044608D16C2E23D04FF480662846C4
:10040000E9688847044606E06C2E03D04FF48076F6
:1004100001E01EE04026E4B1A4F14100192802D811
:10042000203446F400663A46214628462E60FFF7FF
:10043000B7FE60B1012808D0FF1D27F00707083775
:10044000B4E78026DBE70026D9E73F1DAEE720466C
:10045000B2E7286ABDE8F08110B5203AC0F00B8001
:10046000B1E81850203AA0E81850B1E81850A0E8B8
:100470001850BFF4F5AF5FEA027C24BFB1E8185012
:10048000A0E8185044BF18C918C0BDE810405FEA82
:10049000827C24BF51F8043B40F8043B08BF7047FE
:1004A000D20728BF31F8023B48BF11F8012B28BF03
:1004B00020F8023B48BF00F8012B70477047704797
:1004C00070472DE9F0470D4699469246044600F1E3
:1004D00024080168880604D5E06921F01001216034
:1004E00000E00120A84201DD471B00E00027A169D0
:1004F0007A1902EB0900081AA0612078C00602D41C
:100500002046AFF30080002608E0D4E901211AF864
:1005100006009047206A401C761C20624E45F4DBA2
:100520002078C0060AD52046AFF3008006E0D4E963
:10053000012130209047206A401C2062381EA7F11C
:100540000107F4DC07E0D4E9012118F80500904721
:10055000206A401C2062281EA5F10105F3DC20461C
:10056000AFF300802078000602D50220BDE8F087B6
:100570000120FBE701694A1C02610878704700B559
:100580008FB0CDE901310021059105497944CDE9CC
:10059000031011466846FFF703FF0FB000BD0000CF
:1005A000E5FFFFFF0A6802F8010B0A607047754615
:1005B00000F02CF8AE4605006946534620F00700CF
:1005C000854618B020B5FFF711FEBDE820404FF07A
:1005D00000064FF000074FF000084FF0000B21F02D
:1005E0000701AC46ACE8C009ACE8C009ACE8C009FA
:1005F000ACE8C0098D46704710B50446AFF30080E3
:100600002046BDE81040FFF7DDBD00000048704700
:10061000880D002001491820ABBEFEE7260002002D
:10062000704721B1826842F00102826003E0826873
:1006300022F001028260704721B1826842F4807228
:10064000826003E0826822F4807282607047014613
:1006500000208A6802F004020AB1012000E00020B4
:100660007047014600208A6802F008020AB10120A2
:1006700000E000207047000030B502460020002353
:1006800050680F4C20400D790C6844EA0524204343
:10069000506090680B4C2040D1E902542C434D79B6
:1006A00044EA450420439060D06A20F470000C7C3A
:1006B000641EE4B2234340EA0350D06230BD000020
:1006C000FFFEF0FFFDF7F1FFF0B504460D460020F8
:1006D0000021092D11DDE068A5F10A0606EB4607A9
:1006E000072606FA07F18843A5F10A0606EB460637
:1006F00003FA06F10843E0600CE0206905EB4507CA
:10070000072606FA07F1884305EB450603FA06F1CA
:1007100008432061072A0FDA606B561E06EB860736
:100720001F2606FA07F18843561E06EB860605FAD1
:1007300006F10843606322E00D2A0FDA206BD61F12
:1007400006EB86071F2606FA07F18843D61F06EB3D
:10075000860605FA06F10843206310E0E06AA2F17C
:100760000D0606EB86071F2606FA07F18843A2F15D
:100770000D0606EB860605FA06F10843E062F0BDB9
:10078000816841F008018160704721B1826842F4BC
:10079000A002826003E0826822F4A00282607047B7
:1007A000816841F004018160704710B54FF4164034
:1007B00000F008FD00F036F910BD21B1026842F0EA
:1007C0000102026004E002684FF6FE731A40026004
:1007D0007047000001684FF6FE7211400160002171
:1007E000016041608160C1604B49884208D14A493B
:1007F0000839496841F00F01474A083A51608AE0D8
:1008000045491431884208D143490839496841F0C3
:10081000F001414A083A51607DE03F492831884261
:1008200008D13D490839496841F470613A4A083AAB
:10083000516070E038493C31884208D13649083966
:10084000496841F47041344A083A516063E03249E2
:100850005031884208D130490839496841F4702143
:100860002D4A083A516056E02B496431884208D13C
:1008700029490839496841F47001274A083A51600A
:1008800049E025497831884208D123490839496827
:1008900041F07061204A083A51603CE01F498842AB
:1008A00006D1011F096841F00F01021F116032E0FB
:1008B0001A491431884208D11849091F096841F0C2
:1008C000F001164A121F116025E0144928318842B0
:1008D00008D11249091F096841F470610F4A121FBB
:1008E000116018E00D493C31884208D10B49091FBD
:1008F000096841F47041094A121F11600BE0074971
:100900005031884207D10549091F096841F4702117
:10091000024A121F1160704708000240080402409A
:1009200010B50022026847F6F0739A430C6A8B6890
:1009300023430C6923434C6923438C692343CC69CB
:1009400023434C6A23438C6A23431A430260CB68D7
:1009500043600B6883604B68C36010BD10B5012015
:1009600002490870C00300F00DF810BD000000201F
:1009700010B5012002490870C00300F003F810BD53
:100980000000002001490860704700001404014085
:10099000002123498279002A3AD00A461268036866
:1009A0009A430B461A600A1D126803689A430B1D8E
:1009B0001A60027911440A6803681A430A60184AE7
:1009C0000832126803689A43154B08331A601A1DDF
:1009D000126803689A43124B0C331A604279102A4A
:1009E0000ED11A1F126803681A430D4B08331A60A0
:1009F0001A1D126803681A43094B0C331A600DE084
:100A00000749427911440A6803681A430A6005E0FD
:100A1000027911440A6803689A430A60704700002B
:100A20000004014008B50121042000F0A5F94FF4AD
:100A30000060ADF8000004208DF8030069461248FC
:100A400000F046F80121042000F096F94FF48050A0
:100A5000ADF8000004208DF8030069460A4800F054
:100A600037F80121082000F087F94FF48040ADF8F5
:100A7000000003208DF8020010208DF80300694665
:100A8000024800F025F808BD00080140000C0140B4
:100A900030B500228B071C0F0F2303FA04F20B4B17
:100AA0008C1053F824309343084C8D1044F82530B3
:100AB00023468C1053F824308C07240F00FA04F4DA
:100AC0002343024C8D1044F8253030BD080001400E
:100AD0002DE9F041024600250026002000230024D5
:100AE000002791F803C00CF00F0591F803C00CF03B
:100AF000100CBCF1000F03D091F802C04CEA0505C0
:100B000091F800C0BCF1000F31D0146800202BE038
:100B10004FF0010C0CFA00F3B1F800C00CEA030628
:100B20009E4220D183004FF00F0C0CFA03F7BC4318
:100B300005FA03FC4CEA040491F803C0BCF1280F49
:100B400006D14FF0010C0CFA00FCC2F814C00AE008
:100B500091F803C0BCF1480F05D14FF0010C0CFA1D
:100B600000FCC2F810C0401C0828D1D31460B1F8B2
:100B700000C0BCF1FF0F34DD546800202EE000F10E
:100B8000080C4FF0010808FA0CF3B1F800C00CEAA9
:100B900003069E4221D183004FF00F0C0CFA03F79D
:100BA000BC4305FA03FC4CEA040491F803C0BCF111
:100BB000280F05D100F1080C08FA0CF8C2F81480CF
:100BC00091F803C0BCF1480F07D100F1080C4FF0B9
:100BD000010808FA0CF8C2F81080401C0828CED38F
:100BE0005460BDE8F0810000F0B50A4600230024FF
:100BF0000021002500F00046B6F1004F02D11D4E45
:100C0000F16901E01B4E7168C0F3034583B200F443
:100C10004016B6F5401F08D121F07061154E766878
:100C200026F07066134F7E6012E000F48016B6F571
:100C3000801F06D1032606FA05F4A14341F0706136
:100C400006E0460D360103FA06F6B14341F0706145
:100C500022B1460D360103FA06F6314300F0004694
:100C6000B6F1004F02D1034EF16101E0014E716017
:100C7000F0BD0000000001400246002093680B40D8
:100C80000BB1012000E00020704741617047016115
:100C900070470AB1016100E04161704770B5002101
:100CA00000230F22C47804B3154C246804F4E064D4
:100CB000C4F5E064210AC1F10403CA40447804FA8F
:100CC00003F184781440214309010E4C0678A155A4
:100CD000047804F01F050124AC4005786D11AD00C7
:100CE00005F1E025C5F8004109E0047804F01F058E
:100CF0000124AC40044D0678761145F8264070BDBD
:100D00000CED00E000E400E080E100E00249014376
:100D1000024A1160704700000000FA050CED00E087
:100D200001460020034A506820F4404008435060C8
:100D3000704700000010024029B1064A5269024380
:100D4000044B5A6104E0034A52698243014B5A61E1
:100D5000704700000010024029B1064AD2690243E0
:100D6000044BDA6104E0034AD2698243014BDA6141
:100D7000704700000010024029B1064A9269024300
:100D8000044B9A6104E0034A92698243014B9A61E1
:100D9000704700000010024030B5002100220024FE
:100DA00000232D4D6D6805F00C0121B1042905D0FB
:100DB000082923D105E0294D056022E0274D056073
:100DC0001FE0254D6D6805F47012234D6D6805F424
:100DD0008034022505EB92421CB9214D5543056034
:100DE0000BE01D4D6D6805F400351DB11C4D5543DC
:100DF000056002E0194D5543056002E0174D05609E
:100E000000BF00BF144D6D6805F0F0010909154DD4
:100E10006B5C0568DD4045600F4D6D6805F4E06171
:100E2000090A104D6B5C4568DD4085600A4D6D68B0
:100E300005F46051C90A0B4D6B5C4568DD40C56027
:100E4000054D6D6805F44041890B074D6B5CC56825
:100E5000B5FBF3F5056130BD0010024000127A00C9
:100E600000093D00540300206403002010B500F089
:100E700001F810BD0CB500200190009033480068C7
:100E800040F480303149086000BF3048006800F409
:100E9000003000900198401C0190009818B901980A
:100EA000B0F5A06FF1D12948006800F4003010B10E
:100EB0000120009001E0002000900098012843D11B
:100EC0002348006840F01000214908600846006887
:100ED00020F0030008600846006840F00200086047
:100EE0001A48406819494860084640684860084602
:100EF000406840F4806048600846406820F47C10F8
:100F000048600846406840F4E810486008460068B9
:100F100040F08070086000BF0C48006800F000706E
:100F20000028F9D00948406820F0030007494860CC
:100F30000846406840F00200486000BF034840682F
:100F400000F00C000828F9D10CBD00000010024090
:100F500000200240034908600021034A1160034A4F
:100F60001170704784030020800300207C03002060
:100F700010B502F019F910BD10B51348006840F023
:100F800001001149086008464068104908400E49B0
:100F90004860084600680E4908400B49086008464A
:100FA000006820F4802008600846406820F4FE00B5
:100FB00048604FF41F008860FFF758FF4FF0006053
:100FC0000449086010BD0000001002400000FFF856
:100FD000FFFFF6FE08ED00E010B540F225510D4888
:100FE00000F0B4F9A8B10B4800F06CFAC1B20A489D
:100FF00002780078401C084B187008488154184645
:101000000078642805D1002240F22551014800F003
:10101000C7F910BD00380140010000205C04002029
:1010200010B586B0044601210520FFF7A5FE042077
:10103000ADF8140003208DF8160018208DF8170065
:1010400005A92148FFF744FD0820ADF81400482009
:101050008DF8170005A91C48FFF73AFD012144F25D
:101060000100FFF789FE01940020ADF80800ADF8FB
:101070000A00ADF80C00ADF810000C20ADF80E0021
:1010800001A9124800F0B2F9012240F225510F489F
:1010900000F086F94FF4E060FFF738FE25208DF868
:1010A000000001208DF8010002208DF802000120CF
:1010B0008DF803006846FFF7F1FD0121034800F0B9
:1010C0002CF906B010BD00000008014000380140B6
:1010D00010B5044600BF8021044800F02AF900281A
:1010E000F9D02146014800F0F2F910BD0038014066
:1010F0002DE9F0410446002624B93020FFF7E8FF2F
:10110000BDE8F081002C03DA2D20FFF7E1FF6442F7
:101110000A2521E0691E0A2002F08AF8B4FBF0F0EB
:1011200060B10126691E0A2002F082F8B4FBF0F0DB
:101130003030C7B23846FFF7CBFF03E016B130209E
:10114000FFF7C6FF691E0A2002F072F8B4FBF0F147
:1011500000FB1144681EC5B2002DDBDC00BFCFE7E9
:1011600010B5044603E014F8010BFFF7B1FF207837
:101170000028F8D110BD000010B540F225510D48EF
:1011800000F0E4F8A8B10B4800F09CF9C1B20A489D
:1011900002780078401C084B1870084881541846A3
:1011A0000078642805D1002240F22551044800F05F
:1011B000F7F810BD0044004002000020C0040020E9
:1011C0000038014010B586B0044601210520FFF724
:1011D000D3FD4FF40070ADF8140003208DF8160015
:1011E00018208DF8170005A92048FFF771FC4FF46F
:1011F0008060ADF8140048208DF8170005A91B4841
:10120000FFF766FC01214804FFF7A6FD01940020CA
:10121000ADF80800ADF80A00ADF80C00ADF810000C
:101220000C20ADF80E0001A9114800F0DFF80122F2
:1012300040F225510E4800F0B3F84FF4E060FFF79C
:1012400065FD26208DF8000000208DF801000320A8
:101250008DF8020001208DF803006846FFF71EFD9F
:101260000121034800F059F806B010BD0008014004
:101270000044004010B5044600BF8021044800F03F
:1012800058F80028F9D02146014800F020F910BD97
:10129000004400402DE9F0410446002624B93020E6
:1012A000FFF7E8FFBDE8F081002C03DA2D20FFF7FF
:1012B000E1FF64420A2521E0691E0A2001F0B8FF1F
:1012C000B4FBF0F060B10126691E0A2001F0B0FF06
:1012D000B4FBF0F03030C7B23846FFF7CBFF03E085
:1012E00016B13020FFF7C6FF691E0A2001F0A0FFEB
:1012F000B4FBF0F100FB1144681EC5B2002DDBDC2D
:1013000000BFCFE710B5044603E014F8010BFFF768
:10131000B1FF20780028F8D110BD21B1828942F4B4
:101320000052828104E082894DF6FF731A40828167
:10133000704702460020B1F5007F00D100BF13883E
:101340000B400BB1012000E00020704770B5024651
:10135000002400230025002040F66A16B14200D187
:1013600000BFC1F3421501F01F03012606FA03F383
:10137000012D02D19689334006E0022D02D1168A52
:10138000334001E0968A33400C12012606FA04F439
:101390001688344013B10CB1012000E0002070BD6C
:1013A000F0B50346002400260025002040F66A1709
:1013B000B94200D100BF1846C1F3421401F01F0624
:1013C000012707FA06F5012C01D10C3004E0022CAC
:1013D00001D1103000E014301AB107682F430760C4
:1013E00002E00768AF430760F0BD00002DE9F04759
:1013F00086B005460E460024A24600BFA14600273F
:10140000B08900B100BF2F462C8A4CF6FF70044013
:10141000F08804432C82AC894EF6F3100440B08867
:1014200031890843718908430443AC81AC8A4FF683
:10143000FF400440B0890443AC8201A8FFF7ACFC34
:101440001F48874202D1DDF810A001E0DDF80CA0B2
:10145000A88900F4004040B10AEBCA0000EB0A1072
:1014600031684900B0FBF1F807E00AEBCA0000EB75
:101470000A1031688900B0FBF1F86420B8FBF0F085
:1014800004012009642101FB1089A88900F40040AF
:1014900040B1322000EBC900B0FBF1F000F00700D2
:1014A000044308E0322000EB09106421B0FBF1F0A6
:1014B00000F00F0004432C8106B0BDE8F087000067
:1014C0000038014001468888C0F308007047C1F326
:1014D000080282807047000030B504460025802C49
:1014E00003DAA4F1200085B20EE0002009E00C49E7
:1014F00031F81010A14203D100F15F018DB202E07A
:10150000401C4428F3D300BF05EB8501054A02EBDC
:1015100041000A22044900F057F8034830BD00009A
:10152000BA0300200A4600085C0900200048704702
:1015300042040020004870474704002010B54FF4D3
:1015400000510248FFF7A1FB10BD00000010014050
:1015500010B54FF400510248FFF799FB10BD000091
:101560000010014010B504460748047001F08CFAE1
:10157000002006490870012005490870002005492F
:1015800008700549087010BD090000200600002001
:1015900007000020080000202A00002008B50146AE
:1015A000002000900888ADF8000088788DF80200CF
:1015B00004480078C0F112020098D04000900098D2
:1015C00008BD00005704002010B50346002003E0CA
:1015D0001C5C0C54441CE0B29042F9DB10BDF0B529
:1015E00003460C461546002023E01E5C06F00F0162
:1015F0001E5C321101F002070E4667F35F0601F030
:10160000040706EB870601F0080706EBC706265419
:1016100002F00207164667F35F0602F0040706EBC6
:10162000870602F0080706EBC7064719E655461C71
:10163000F0B2A842D9DBF0BD0CB50021019110E059
:101640000021009104E0BDF80010491C89B200910E
:10165000BDF800100429F6DBBDF80410491C89B25E
:101660000191BDF804108142EADB0CBD70B504465F
:101670000D462DB101220021052001F08AFA04E077
:1016800001220021062001F084FA24B10122502118
:10169000204601F07EFA70BD10B5014661B12820E8
:1016A00000F01F0301229A4043099B0003F1E0234D
:1016B000C3F8002100BF0AE0282000F01F03012228
:1016C0009A40034B440943F8242000BF00BF10BDDB
:1016D00080E100E00146024850F821007047000018
:1016E000680900200146024850F8210070470000B8
:1016F000E809002010B5114A1288114B114C2488BA
:1017000023F814200F4A1288521C142392FBF3F47E
:1017100003FB14220B4B1A800021002005E0084A2D
:1017200032F810201144421C90B21428F7DB142226
:10173000B1FBF2F2044B1A8010BD0000B40300208C
:1017400034090020B6030020B803002004207047AD
:101750000FB410B5BDF81A100398FFF78DFA10BC3E
:101760005DF814FB1CB50446044801940069009020
:1017700002480FC800F0F7F81CBD000088030020E5
:1017800008B504480069009002480FC800F02CF921
:1017900008BD00008803002008B5044800690090D7
:1017A00002480FC800F04CF908BD00008803002073
:1017B00008B504480069009002480FC800F06DF8B1
:1017C00008BD00009C0300201CB504460448019499
:1017D0000069009002480FC800F0C5F81CBD000069
:1017E0009C03002008B504480069009002480FC817
:1017F00000F0FAF808BD00009C03002008B504487A
:101800000069009002480FC800F01AF908BD0000F6
:101810009C0300200FB410B501210498FFF7ACFA27
:1018200001210598FFF7A8FABDF8180005490880BE
:101830001020C870032088700298FFF749F910BC87
:101840005DF814FBB00300200FB41CB5089800909D
:1018500004A80FC801F0D2FB012001900898009065
:1018600004A80FC801F02EFC0420FFF7E5FE08983D
:10187000009004A80FC8FFF76BFF044600200190FA
:101880000898009004A80FC801F01CFC0420FFF782
:10189000D3FE20461CBC5DF814FB0FB47CB50024BD
:1018A0000A98009006A80FC801F0A8FB002520E0C8
:1018B000012001900A98009006A80FC801F002FCD0
:1018C0000420FFF7B9FE0A98009006A80FC8FFF79A
:1018D0003FFF40EA4400C4B2002001900A98009003
:1018E00006A80FC801F0EEFB0420FFF7A5FE681C58
:1018F000C5B2082DDCDB002001900A98009006A8F4
:101900000FC800F004F820467CBC5DF814FB0FB44F
:101910001CB5099C0898009004A80FC801F07EFB34
:1019200001940898009004A80FC801F0DDFB042082
:10193000FFF782FE012001900898009004A80FC8CC
:1019400001F0C0FB0420FFF777FE0020019008980B
:10195000009004A80FC801F0B5FB0420FFF76CFE4F
:101960001CBC5DF814FB0FB47CB50B9E80240A9858
:10197000009006A80FC801F051FB002521E00020CF
:1019800001900A98009006A80FC801F09BFB04EA9A
:10199000060001900A98009006A80FC801F0A4FB69
:1019A0000420FFF749FE012001900A98009006A844
:1019B0000FC801F087FB0420FFF73EFE6410681C8F
:1019C000C5B2082DDBDB002001900A98009006A824
:1019D0000FC801F077FB0A98009006A80FC8FFF720
:1019E00033FF7CBC5DF814FB0FB41CB50898009065
:1019F00004A80FC801F012FB012001900898009084
:101A000004A80FC801F070FB0420FFF715FE0120A9
:101A100001900898009004A80FC801F053FB04201F
:101A2000FFF70AFE002001900898009004A80FC854
:101A300001F05AFB0420FFF7FFFD1CBC5DF814FB0E
:101A40000FB41CB50898009004A80FC801F0E6FA7E
:101A5000002001900898009004A80FC801F044FBF2
:101A6000012001900898009004A80FC801F02AFBFB
:101A70000420FFF7E1FD012001900898009004A8E0
:101A80000FC801F031FB0420FFF7D6FD1CBC5DF848
:101A900014FB000000B591B04FF48040FFF740F90F
:101AA00001210846FFF748F901214FF40270FFF7C2
:101AB00063F90120ADF8000000208DF803006946AD
:101AC0003248FFF705F83248FEF784FE31480190AE
:101AD00031480290002003900120049000200590DE
:101AE00006904FF4807007908000089020200990A5
:101AF00000020A9000200B9001A92548FEF710FF74
:101B000001212348FEF759FE00200C9001208DF89A
:101B100034008DF835004FF460200E9000200F90B7
:101B200001208DF840000CA91A484C38FEF7A4FD9E
:101B300005230122082117484C38FEF7C5FD012175
:101B400014484C38FEF778FD012112484C38FEF756
:101B500068FD10484C38FEF713FE00BF0D484C38A6
:101B6000FEF77FFD0028F9D10A484C38FEF718FE31
:101B700000BF08484C38FEF76AFD0028F9D1012162
:101B800004484C38FEF701FE11B000BD000C0140C6
:101B9000080002404C240140B403002008B5012194
:101BA0000420FFF7E9F84FF40040ADF800000420EE
:101BB0008DF8030069460948FEF78AFF01211020CD
:101BC000FFF7DAF84FF48040ADF8000004208DF8FC
:101BD000030069460248FEF77BFF08BD000801408C
:101BE000001001401FB501210420FFF7C5F84FF494
:101BF0000040ADF8040004208DF8070001A9164844
:101C0000FEF766FF01210846FFF7B6F80F21002016
:101C1000FEF73EFF4FF40040029000208DF80C00CC
:101C200008208DF80D0001208DF80E0002A8FEF7A7
:101C3000AFFE28208DF800000F208DF801008DF8F0
:101C4000020001208DF803006846FFF727F8002006
:101C5000FFF722FD1FBD00000008014008B501216B
:101C60001020FFF789F810208DF803004002ADF82E
:101C7000000003208DF8020069460248FEF728FFA5
:101C800008BD00000010014008B50448006900903C
:101C900002480FC8FFF7BEFD08BD00008803002002
:101CA00008B504480069009002480FC8FFF7B2FD6C
:101CB00008BD00009C03002008B501210420FFF7A7
:101CC0005BF84FF48070ADF8000010208DF8030031
:101CD00003208DF8020069461348FEF7F9FE012142
:101CE0000420FFF749F84FF48070ADF8000003209E
:101CF0008DF8020010208DF8030069460A48FEF7AF
:101D0000E7FE01210820FFF737F84FF48040ADF8D7
:101D1000000003208DF8020010208DF803006946B2
:101D20000248FEF7D5FE08BD00080140000C014046
:101D300000B587B01C2205A16846FEF78DFB002286
:101D40001921684601F07CF907B000BDAED580A826
:101D50003FD300408D14A0C0DA1281CFD9F1DB400F
:101D6000A4A62000AF00000010B500F02BF86420FE
:101D7000FFF7F0F8FFF788FFFFF792FFFFF7D8FFB4
:101D8000FFF70CFFFFF798FFFFF768FFFFF782FEF2
:101D900000F07AFEFFF726FFFEF707FD4FF416402E
:101DA000FFF710FA4FF41640FFF73AF900F07AFB0C
:101DB00000F0BDFB012211020148FEF76AFF10BDD1
:101DC0000008014030B5164800684FF47A72B0FB45
:101DD000F2F1B1F1807F01D301201DE021F07F40BD
:101DE000401E4FF0E022506150170F22002807DA02
:101DF00013071D0E0B4B00F00F04241F1D5503E0AD
:101E000013071C0E084B1C5400BF00204FF0E022AB
:101E1000906107201061002008B100BFFEE730BDCF
:101E20006803002018ED00E000E400E02DE9F05F19
:101E30000446894600210D460E460F468846A9EB0A
:101E40000400C3B211E01F4850F823100022DFF84D
:101E500078C0B1EB0C0C72F1000002DA0020BDE892
:101E6000F09F6D185641581CC3B24B45EBDB224620
:101E7000002328463146FEF7CBF905460E46A9EB6E
:101E80000400C2B213E00F4B53F822000021B5EB5F
:101E9000000C66EB0103ACFB0CAB03FB0CBB0CFBB7
:101EA00003B31AEB070743EB0808501CC2B24A45BC
:101EB000E9DB1E21791A78F1000001D20020CEE77B
:101EC0000120CCE7C0010020A086010010B54FF42E
:101ED00000610248FEF7D0FE10BD0000000801407E
:101EE00001210846FEF748FF01211248FEF77CFE5B
:101EF000FFF73AFF1CE000BF0F4800780028FBD036
:101F000000200D4908700D480088C0F101000B4900
:101F1000088001F04DF8FFF711FB00F015F80848B4
:101F2000008810B10748007800E0012005490870DA
:101F3000E1E70000000230007C0300200C000020DC
:101F4000580400202A000020FEB50127FFF7FEFB01
:101F5000FE490870FFF7BAFFFD490870FD48007898
:101F600028B108460178F9480078FFF77FFBF84868
:101F7000007840B1F848007840B10020F649087078
:101F8000FFF7E6FA02E00120F3490870F348007811
:101F9000C0B1F0480078012807D0EE480078032847
:101FA00003D0EC480078042806D1052301226E21D5
:101FB000EBA000F0EBFE05E0052301226E21E9A075
:101FC00000F0E4FEE3480078072879D2DFE800F06B
:101FD000043478AB52FDFC00E348007840B901209E
:101FE000E14908700020DD4908700520DF490880BC
:101FF000DE480088401EDD49088008460088D0B9C8
:102000000120FFF7AFFAFFF793FE00F03DFDFFF769
:102010008FFEFFF7C3FDFFF74FFEFFF71FFEFFF731
:1020200039FD00F031FDFFF7DDFDFEF7BEFB00F0EE
:1020300039FA00F07CFA2DE2CB48007838B901205B
:10204000C94908700020C549087000F070FA0523DE
:1020500007220021C6A000F099FE00F0F1FC10B1AB
:102060000620FFF77FFA01F07FF810B10320FFF799
:1020700079FA0FE2BC480078002841D10120BA4922
:1020800008700020B54908700520B8490880BF488D
:10209000BF49C04AC04BCDE900210290BF4A64212C
:1020A000BF4800F06DFABA480068BE49884203D0C4
:1020B000B9480068884204D10320FFF753FAE9E1E8
:1020C000E7E1FFF745FAB8A0FFF71CF9B048006850
:1020D000FFF7E0F8B5A0FFF715F9AF480068FFF784
:1020E000D9F8B3A307220021A948006800F013FD26
:1020F000B0A307224121A848006800F00CFDC9E107
:102100009A4801880088401E984A108051B90320DF
:102110009049087000209449087001208F49087088
:10212000A5490870B6E190480078D8B901208E49D9
:102130000870002089490870A04908709E480078FE
:1021400050B90523042200219DA000F01FFE0722A4
:102150000F21252000F0B7FC9FA0FFF701F800F049
:1021600063FE97E100F060FE9E4908709248007897
:1021700058B90523072200219BA000F007FE072283
:1021800000218E48007800F0CDFD00241BE08B4834
:1021900000782044C5B2642D00DB1BE02046FFF729
:1021A00099FA7E4941F825002046FFF79BFA7C49C1
:1021B00041F8250051F82500FEF79AFF8BA0FEF7A5
:1021C000CFFF601CC4B201E03DE063E085480078C9
:1021D0008442DCDB00BF79480078824909780844F2
:1021E00076490870824800787E4909780844804919
:1021F0000870084600780A280DDD70480178794893
:102200000078FFF713FE6D49097848436B49087061
:1022100000207749087069480078642801DD64204F
:1022200001E066480078654908700846007864282F
:1022300002DB0420FFF796F900F002FC10B1012048
:10224000FFF790F926E14848007878B90020434923
:1022500008700722002167A000F078FD00206C497B
:10226000087001204049087000F05AF93848007899
:1022700010B901F003F806E000F076FF10B1052078
:10228000FFF770F900BF00F0DBFB10B10120FFF792
:1022900069F9FFE03448007828B900202F49087018
:1022A0000120314908702A48007800B9E9E0052387
:1022B0000422002142A000F069FD07220F21252001
:1022C00000F001FC0120FFF7E7F9002051490870F8
:1022D0000A20FEF73FFE14204F49088000202349C2
:1022E00008804EA0FFF70EF84FF47A704C49088032
:1022F000B2E000BF4B4800780028FBD0FFF7FAF9A6
:102300000020484908704848008843490988C1F1BD
:102310001401464A22F811003F480088401E3E49F9
:102320000880FFF70BF93C48008868B914203A4947
:102330000880FFF70DF900F04FFF05230722002169
:1023400029A000F023FD73E07EE0000004000020DF
:1023500005000020090000202E00002007000020BA
:102360007070670065636700060000200E000020A3
:102370004E68E1BAA56E20535441525420C4916F67
:102380002048522F53704F32000000001D000020E3
:10239000180000201C000020140000203000002045
:1023A000C001002019FCFFFF683A00003A0000005D
:1023B00062706D002500000008000020260000204B
:1023C000C490616E67206CE1BAA579206DE1BAAB6B
:1023D00075202E2E2E0000000A53746172743A0A82
:1023E0000000000025000020202020002C200000FC
:1023F000270000204E68E1BAA56E20535441525484
:1024000020C491E1BB8320C4916F20454347000065
:102410002A000020000000200C000020653A000087
:10242000100000207C030020B80300200C090020CD
:10243000194800880A2190FBF1F0C0F164060722D8
:102440000021304600F06EFC134801880088401ED1
:10245000114A108001B904E01048007800283FF4C8
:1024600048AF00BF0EA0FEF74DFF6420FEF772FDDF
:1024700000200A490870FFF70FF90620FFF772F8ED
:1024800006E000F0DDFA10B10620FFF76BF800BFA0
:1024900000E000BF00BFFEBD1000002000000020D3
:1024A0006E0000003EB500F040FE0A2518A207CAE3
:1024B0008DE807009DF80100022801D1012000E00D
:1024C000022016490870FFF78DF9AE20FFF77CF95E
:1024D00008B101203EBD0820FFF776F908B10220BF
:1024E000F8E7002409E01DF80400FFF76DF910B1CA
:1024F000E01CC0B2EEE7601CC4B20A2CF3DBFFF7AD
:102500007DF980227F21022000F0F4FC0020E1E729
:10251000508327001F1F00000021000056040020E8
:1025200010B580227F21092000F0E4FC10BD10B519
:1025300000227F21092000F0DDFC10BD2DE9F847C5
:1025400005460C4616461F46DDE90A9ADDF824804A
:102550003B46324621462846CDF8008000F0BEF9C1
:102560004B4632462146284600F0F5F92068504592
:1025700001DA206800E050462060BDE8F8870000DE
:102580002DE9FF4FA4B08246884600200C900B90A6
:102590002390002405E05AF824102398084423903F
:1025A000641C4445F7DB2398B0FBF8F0239000242B
:1025B00008E05AF824102398081A4042C34941F809
:1025C0002400641C4445F4DB002417E0BF4951F8A3
:1025D00024200B46611C53F821100A44A11C53F817
:1025E00021100A44E11C53F821105018C11700EBC8
:1025F000917189101A4642F82410641C602CE5DBA6
:102600000027002404E0B14850F824000744641C6B
:10261000642CF8DB642097FBF0F71E2F00DA1E27EE
:102620003C2F00DD3C27002404E0002012A941F8E3
:102630002400641C0F2CF8DB0F200C216423A34A18
:10264000CDE90071029021A912A8FFF777FF4FF0A2
:10265000000B219802281CDB012409E012A850F885
:102660002410601E12AA52F82000081A8344641C29
:1026700021988442F2DB2198401E9BFBF0FB40F244
:10268000DC5090FBFBF1329801600121339801701E
:1026900005E08F49329801600021339801700024D1
:1026A0000BE05AF82400894941F82400269850F894
:1026B0002400884941F82400641C4445F1DB21983A
:1026C0002290002005900026002404E0002006A9A6
:1026D00041F82400641C052CF8DB00240EE012A84D
:1026E00050F82400642808DD79492798016000210A
:1026F0003198017028B0BDE8F08F641C22988442A4
:10270000EDDB0024A6E04FF07F400E900D9012A963
:10271000601C51F8200051F82410401A03287DDD78
:1027200012A850F8245016E0684850F825100D986B
:10273000814204DD654850F825000D900B956548F1
:1027400050F825100E98814204DD624850F82500AB
:102750000E900C956D1C12A9601C51F82000A84227
:10276000E2DC601C51F820005A4951F8200012A9FF
:1027700051F82410574A52F82110401A12A951F862
:1027800024200C99891A4843119012A9601C51F811
:10279000200051F82410411A119890FBF1F012A971
:1027A00051F824104B4A52F8211008441190114658
:1027B0000C9851F820101198081A119012A9601C59
:1027C00051F82000414951F8200012A951F8241075
:1027D0003E4A52F82110401A12A951F824200B99B0
:1027E000891A4843109012A9601C51F8200051F832
:1027F0002410411A109890FBF1F012A951F82410FE
:10280000324A52F821100844109011460C9851F8A1
:1028100020101098081A10900D9900E019E01198F6
:102820004843C01104900E9910984843C01103907A
:10283000039800280DDD052E0BDA049848B16421B9
:1028400004984843039990FBF1F006A941F826004B
:10285000761C641C2298401EA0423FF754AF3146BC
:1028600006A800F0B1F8304606EBD0714FEA6109D6
:10287000B9F1010F0CDDA9F1010106AA52F82110EE
:1028800052F82920881800EBD0714910059103E017
:1028900006A850F829000590059802280DDD059836
:1028A000B8280ADA0C490598085C0F9027990F9808
:1028B000086001213198017005E005492798016001
:1028C00000213198017000BF14E70000680A002061
:1028D00019FCFFFFF80B002058520008F0B5054620
:1028E0001C46059E012000270F6030E052F8207042
:1028F000B7422BDD52F820C0471E52F82770BC4566
:1029000024DD012300E05B1CC718A74207DA52F858
:10291000207000EB030C52F82CC06745F3D052F83E
:10292000207000EB030C52F82CC067450CDD0F68DB
:102930000F2F09DAD1F800C00CF101070F6045F83C
:102940002C005F1C384402E0184400E0401C671E65
:102950008742CBDCF0BD2DE9F04F05460C46924690
:10296000984629465046226800F049F84FF0FF3655
:1029700021E0D4F800B0701C2060771C18E055F8F6
:102980002710701C10B94FF0FF3001E055F82600F9
:10299000A1EB0009C14503DCC8F10000814506DA5E
:1029A00055F827102268501C206045F822107F1C23
:1029B0005F45E4DB761C2068B042DADC28462168FB
:1029C00000F002F8BDE8F08F30B50C46012213E0AC
:1029D00050F82230114605E04D1E50F8255040F8C1
:1029E0002150491E002904DD4D1E50F825509D42FE
:1029F000F2DC40F82130521CA242E9DB30BDF0B5D8
:102A000003461546012217E051F82240104605E022
:102A1000461E51F8266041F82060401E002808DD5F
:102A200053F82470461E51F8266053F82660B742CA
:102A3000EEDC41F82040521CAA42E5DBF0BD00006C
:102A40000E48007808B9002070470D480188002220
:102A500009B901220AE00B48008808B9012205E003
:102A600008480088081A022800DD01221AB105482A
:102A70000180C8B2E8E70020E6E700002A00002055
:102A8000580400205003002070B50021084600F0D3
:102A900003FBFEF775FE7820FEF764FE4020FEF78C
:102AA00061FE00240AE0002504E00020FEF75AFE43
:102AB000681CC5B2802DF8DB601CC4B2082CF2DBA8
:102AC000FEF76AFE70BDFEB507460D461446384651
:102AD000FEF702FD064605226946701DFEF77FFDE2
:102AE000A01EC1B205236A46284600F0C3FA601E44
:102AF000C1B205230DF10502284600F0BBFA0522FC
:102B000069463046FEF76BFD05236A462146284696
:102B100000F0B0FAFEBD2DE9F04706460C4692469D
:102B20001F464FF0010806F0FF0908E008F1010018
:102B300000F0FF080A2099FBF0F000F0FF090A20DE
:102B400099FBF0F00028F1D1002508E00D2000FBF2
:102B50000540C1B252463A2000F072F86D1C042DB7
:102B6000F4DB04F13400C1B252462020FFF7ABFF82
:102B700052462146304600F0A9F80D2000FB0840DF
:102B8000801CC1B206235246384600F0FFF8BDE86B
:102B9000F0872DE9F04385B00746884614460A269B
:102BA0000525052F02D0062F2ED116E0FEF7BEFC1C
:102BB00081462A4669464846FEF711FD601EC1B2AD
:102BC0002B466A46404600F055FA0DEB05022B46AF
:102BD0002146404600F04EFA2EE0FEF7ABFC81465F
:102BE0002A4669464846FEF7FAFC601EC1B22B46EB
:102BF0006A46404600F03EFA0DEB05022B462146A0
:102C0000404600F037FA17E0384600F0FBF88146FE
:102C1000324669464846FEF7E2FC601EC1B23346C2
:102C20006A46404600F026FA0DEB0602334621467E
:102C3000404600F01FFA00BF00BF05B0BDE8F083BA
:102C4000F0B587B006460F461446A6F13000C0EB3B
:102C5000C00101EB40101C4945180D226946284669
:102C6000FEF7BDFC201FC1B20D236A46384600F0B6
:102C700001FAE01EC1B20D230DF10D02384600F03D
:102C8000F9F90D22694605F10D00FEF7A8FCA01E1A
:102C9000C1B20D236A46384600F0ECF9601EC1B29D
:102CA0000D230DF10D02384600F0E4F90D226946BE
:102CB00005F11A00FEF793FC0D236A4621463846BB
:102CC00000F0D8F907B0F0BD8734000870B586B0C1
:102CD00004460D461646224605A16846FDF710FB40
:102CE0000D2332462946684600F004F806B070BD50
:102CF000256C64002DE9F04104460D4617461E463A
:102D0000207808B9BDE8F08120783A462946FFF7D7
:102D100097FFA819C1B233463A46601CFFF7EAFF95
:102D200000BFEFE770B586B004460D461646224652
:102D300005A16846FDF7E4FA0523324629466846B0
:102D400000F024F806B070BD256C640070B5044630
:102D50000D46164605233246294605A000F016F812
:102D6000052332462946204600F010F870BD0000C9
:102D70002020202020202020202020202020202053
:102D80002020202020202020202000002DE9F041BC
:102D900004460E4690461F46207808B9BDE8F081EB
:102DA0002078802801DA257811E02078CF2807DA0A
:102DB00061782078002200F046FA85B2641C06E0B3
:102DC000A2786178207800F03EFA85B2A41C4246D1
:102DD00031462846FFF777FE402D0ADD5B2D08DAE5
:102DE000F019401CC1B23B464246601CFFF7CEFFC3
:102DF00006E0F019C1B23B464246601CFFF7C6FF31
:102E000000BFCBE710B50246002106E02D20C1F13E
:102E10000703044CE054481CC1B29142F6DB014860
:102E200010BD00004C0400202DE9FC4100F0ADF87D
:102E300046B22D480078704300EB4000C7B2FEF761
:102E4000D1FCAE20FEF7C0FC10B10020BDE8FC8133
:102E50000720FEF7B9FC08B10020F7E7FEF7C2FC37
:102E6000AF20FEF7B1FC08B10020EFE7002532E00B
:102E7000002407E0FEF79CFCC4F1020101AA5054B3
:102E8000601CC4B2032CF5DB01A8FEF787FB2946C2
:102E90006A1CD5B2154A42F821001348007801286F
:102EA00012DD002407E0FEF783FCC4F102010DF8F7
:102EB0000100601CC4B2032CF5DB6846FEF76EFB14
:102EC000691E0B4A42F8210007480078032101FBE4
:102ED0001070C7B200BF002FCADCFEF78FFC0020C5
:102EE00000F019F8F0B2B1E756040020E80900201C
:102EF000680900202DE9F04107460D461646384680
:102F000000F009F804462C4034432146384600F0CE
:102F100021F8BDE8F08170B50446FEF763FCAE20F1
:102F2000FEF752FC08B1FF2070BD2046FEF74CFCB6
:102F300008B1FF20F8E7FEF755FCAF20FEF744FC90
:102F400008B1FF20F0E7FEF733FC0546FEF756FC1C
:102F50002846E9E770B505460C46FEF743FCAE206F
:102F6000FEF732FC08B1012070BD2846FEF72CFCAC
:102F700008B10120F8E72046FEF726FC08B1012041
:102F8000F2E7FEF73BFC0020EEE770B50620FFF706
:102F9000C2FF45B20420FFF7BEFF46B2701B44B229
:102FA000002C02DA04F1200000E02046C0B270BD1F
:102FB00010B54FF400410E48FDF75EFE28B10D48F4
:102FC0000088401C0B49088002E000200949088065
:102FD0004FF480410848FDF74FFE28B90548408866
:102FE000401C0449488002E000200249488010BD8E
:102FF0000008014058040020001001400FB410B533
:10300000BDF81A00044908800420C8700398FDF731
:103010005FFD10BC5DF814FBB00300200FB410B5C9
:10302000BDF81A00054908801020C8700320887078
:103030000398FDF74DFD10BC5DF814FBB0030020B4
:103040002DE9F04105460E461746FEF799FB78201C
:10305000FEF788FB3846FEF785FB002404E0285D78
:10306000FEF780FB601CC4B2B442F8DBFEF794FBB1
:10307000BDE8F0812DE9F04106460F4614461D4695
:103080003946304600F008F8402229462046FFF72E
:10309000D7FFBDE8F08100007CB505460C4607A1CE
:1030A00003C9CDE900018DF801508DF804400022DC
:1030B00006216846FFF7C4FF7CBD000021007F2287
:1030C000000700000FB410B5079C2CB1BDF8181014
:1030D0000298FDF7DCFD04E0BDF818100298FDF73A
:1030E000D4FD10BC5DF814FB0FB410B5079C2CB1D7
:1030F000BDF81A100398FDF7CAFD04E0BDF81A10D8
:103100000398FDF7C2FD10BC5DF814FB01460120D9
:1031100005E00A2291FBF2F291B2421CD0B20A22DF
:1031200091FBF2F2002AF4D1704770B54022BF2122
:103130000920FFF7DFFE00246420FEF77DFA0BE094
:103140000920FFF7E8FE054605F0400000B908E059
:103150006420FEF771FA00BF2046611CCCB26428DF
:10316000EEDB00BF70BD000070B50D48448800253F
:103170000CB901250AE00B48008808B9012505E0D3
:1031800008480088201A032800DD012535B10548CC
:1031900004800CB1FEF7DCF9E0B270BD0020FCE762
:1031A000580400205203002008480068401C0749CA
:1031B00008600846006806490968884205D300206F
:1031C000024908600120034908707047800300200D
:1031D000840300207C03002070B59EB000260024EC
:1031E000002516E0104931F815200DEB04000FA161
:1031F000FDF786F80C4931F81500FFF787FF064602
:10320000A01984B23A200DF80400601C84B2681C36
:10321000C5B2142DE6DB00200DF804006846FEF769
:1032200071F81EB070BD00000C090020256400007C
:1032300010B502460120002302E050435C1CE3B2BB
:103240008B42FADB10BD10B503460020802B01DA5B
:10325000184612E0E02B06DA03F01F00800101F0AF
:103260003F04204309E003F00F00800101F03F0418
:103270002043800102F03F04204310BD10B54FF4FD
:1032800080410948FDF701FD4FF480410648FDF7F4
:10329000FEFC4FF480410448FDF7F7FC4FF48041F9
:1032A0000148FDF7F4FC10BD000C014000000000D7
:1032B0000000005F00000003000300143E143E14F1
:1032C000242A7F2A1243330866613649552250006A
:1032D00005030000001C2241000041221C001408CC
:1032E0003E081408083E080800503000000808088E
:1032F0000808006060000020100804023E514945A3
:103300003E0004027F00426151494622414949364C
:103310001814127F1027454545393E494949320165
:10332000017109073649494936264949493E00365F
:103330003600000056360000081422410014141410
:103340001414004122140802015109063E41595546
:103350005E7E0909097E7F494949363E4141412245
:103360007F4141413E7F494949417F090909013E69
:103370004141493A7F0808087F00417F41003040C1
:1033800040403F7F081422417F404040407F020C74
:10339000027F7F0204087F3E4141413E7F090909C7
:1033A000061E2121215E7F090909762649494932F5
:1033B00001017F01013F4040403F1F2040201F7F0F
:1033C0002010207F41221C2241070870080761510C
:1033D000494543007F4100000204081020000041DD
:1033E0007F0004020102044040404040000102040A
:1033F0000040A9AAA8F07F444444383844444444D7
:10340000384444447F385454541804047E05050855
:103410005454543C7F0804047800447D400020400C
:10342000443D007F1028440000417F40007C047828
:1034300004787C0804047838444444387C14141418
:1034400008081414147C007C0804044854545420C4
:1034500004043F44443C4040207C1C2040201C3C51
:103460004030403C44281028440C5050503C4464A8
:10347000544C44000836414100007F000041413671
:103480000800020102040200C0F0FC1E0E0E0E1E17
:10349000FCF0C000003FFFFF8000000080FFFF3F06
:1034A00000000000030707070707030000000018DB
:1034B000181C1CFEFEFE00000000000000000000C2
:1034C000FFFFFF00000000000006070707070707CF
:1034D000070707060000383C1E0E0E0E0E1EFEFCEF
:1034E000F000000080C0E0F0783C1E0F07030000F1
:1034F00007070707070707070707070000183C3EED
:103500001E0E0E0E1EFCF8F0000080C0C08E0E0EC7
:103510000E8EFFFF70000001030707070707070370
:10352000010000000000C0F07C1EFEFEFE00000056
:10353000003C3F3F393838FFFFFF383800000000BB
:103540000000070707070707070000FCFEFE8E8E36
:103550008E8E8E8E0E0C0000C1C3C303030303873F
:10356000FFFFFE0000010307070707070707030126
:103570000000F0FCFE1E8E8E8E8E9E1C180000FF3A
:10358000FFFF8703030387FFFFFE00000103070718
:103590000707070707030100001E1E1E0E0E0E0E72
:1035A000CEFEFE7E0000000000C0F0FC7F1F070181
:1035B00000000000000007070700000000000000F6
:1035C000F0F8FC9E0E0E0E9EFCF8F00000F0F9FFE5
:1035D0008F0707078FFFF9F00000000103070707B7
:1035E00007070301000000F8FCFE1E0E0E0E1EFE73
:1035F000FCF80000878F9F1E1C1C1C8EFFFFFF0025
:1036000000111317171717171717131010000000C2
:1036100000000000000000000000000000000000AA
:10362000000000000000000000000000000000009A
:10363000000000000000000000000000000000008A
:103640000200000000F80000000000000000180068
:1036500018000001000100A0F0A0F0A0010103018A
:10366000002050F8509002010003031898403008E1
:103670000102020102B048A8108000000000000012
:1036800028180000000001020000E01008000002FD
:10369000010000000810E0000000010000A040F060
:1036A00040A000000100004040F040400002010046
:1036B00000008080000000000000004040404040CA
:1036C00000030300000000000000010000000000F3
:1036D000804020100102020201F0884828F000001A
:1036E000000300002010F800020302020210088804
:1036F0004830010202020110084848B000000003EF
:1037000000C0A090F880010202020138282828C8D1
:103710000102020201F0484848900000030000083E
:10372000088848380102020201B0484848B0010246
:1037300002020130484848F0000101000000B0B02A
:103740000000000201000000B0B000000000010213
:103750000040A01008000000000000A0A0A0A0A051
:103760000002010000000810A0400000020000104C
:10377000088848300102020202F008C8A8F00300DD
:10378000000003F0484848F00302020201F84848EC
:1037900048B00102020201F0080808100302020208
:1037A00001F8080808F00302020202F84848480835
:1037B0000300000000F8484848080102020201F036
:1037C000080848D00300000003F8404040F8000219
:1037D0000302000008F80800010202020180000054
:1037E00000F80300000102F840A0100803020202E2
:1037F00002F8000000000300000003F8106010F859
:103800000300000003F8102040F80102020201F05A
:10381000080808F00300000000F84848483000019C
:10382000010102F0080808F00300000003F848480E
:1038300048B00102020201304848489000000300ED
:10384000000808F808080102020201F8000000F868
:103850000001020100F8000000F80301000103F874
:10386000008000F802010001020810E010080000CA
:1038700003000038408040380302020202088848F2
:103880002818000302000000F808000000000000F3
:103890000110204080000000020300000008F80032
:1038A00000000000002010081020020202020200A6
:1038B00000000000000000000000081020000102CD
:1038C00002020300A0A0A0C00302020201F820200F
:1038D00020C00102020202C02020202001020202B8
:1038E00003C0202020F80102020200C0A0A0A0C056
:1038F00000000300002020F028280005050503C073
:10390000202020E00300000003F8402020C0000237
:103910000302000020E80000010202010000002074
:10392000E8000300010200F88040200000020302CA
:10393000000008F800000300030003E020C020C0DE
:103940000300000003E0402020C00102020201C089
:10395000202020C00300000000E0A0A0A040000044
:1039600000000340A0A0A0E0000300000000E04031
:103970002020020202020140A0A0A00000000102DB
:10398000022020F820200102020103E0000000E0F4
:103990000001020100E0000000E00102010201E07C
:1039A000008000E00201000102204080402000056C
:1039B000050503E0000000E002030202022020A04F
:1039C000602000000102020040B00808000003006F
:1039D000000000F8000002020100000808B04000EA
:1039E000000000000010081020100102020103E096
:1039F000000804E00102020103E0040800E0010203
:103A0000020103E4020408E40102020103E0040CE1
:103A100000E001020A0103E0000000E001020201EF
:103A200000E00000E0300102020100E00008E430A4
:103A30000102020100E00408E0300102020100E29C
:103A40000102E4340102020100E0040CE030010252
:103A50000A0100E00000E0300102020200C0A0A85C
:103A6000A4C00102020200C0A4A8A0C00102020278
:103A700000C4A2A4A8C40102020200C0A4ACA0C059
:103A800001020A0200C0A0A0A0C00102020200C000
:103A9000A8A4A8C00102020200C2A9A4A8C00102F1
:103AA000020200C0A8A4A9C2030505050182514A6B
:103AB00054820102020200C0A8A4A9C301020A02A2
:103AC00000C0A8A4A8C000020302000020E804006F
:103AD00000020302000024E80000000203020004C8
:103AE00022EC080400020302000024EC00000002A3
:103AF0000B02000020E800000005050503E00008B7
:103B000004E00005050503E0040800E000050505E4
:103B100003E4020408E40005050503E0040C00E0EA
:103B200000020A020170808080F00102020203009C
:103B3000A0A4A8C0010202020300A0A8A4C0010220
:103B400002020304A2A4A8C4010202020300A4AC5E
:103B5000A0C001020A020300A0A0A0C001020A0244
:103B60000304A8A8A4C0020505050708505249800F
:103B70000205050507085152488002050505070A98
:103B800051524C8202050505070851534880010235
:103B90000A020104A8A8A4C0010202020300A8A40A
:103BA000A8C0010202020302A9A4A8C001020202E5
:103BB0000300A8A4A9C2020505050702514A5482C0
:103BC000010202020300A8A5ABC001020A02030021
:103BD000A8A4A8C00102020201C0202824C001023A
:103BE000020201C0202428C00102020201C42224D2
:103BF00028C40102020201C0242C20C001020A02D2
:103C000001C0202020C00102020201C0282428C0D7
:103C10000102020201C2292428C00102020201C0DD
:103C2000282429C2030404040382514A5482030451
:103C3000040403805049538001020A0201C0282471
:103C400028C00102020201C0202028D8010202027D
:103C500001C2242028D80102020201C0242228D84F
:103C600001020A0201C0202028D80102020201C27A
:103C7000262028D8030404040382414254B20102DE
:103C8000020302804048FC08000302020140F84899
:103C900008F000000000000000000000000000002C
:103CA0000000000000F800000000000000333000B9
:103CB000000000100C06100C0600000000000000C0
:103CC000000040C07840C0784000043F04043F0436
:103CD0000400007088FC08300000001820FF211E3E
:103CE0000000F008F000E018000000211C031E2175
:103CF0001E0000F00888700000001E2123241927F0
:103D0000211010160E00000000000000000000004E
:103D10000000000000E01804020000000007182066
:103D2000400000020418E0000000004020180700D6
:103D30000000404080F0804040000202010F01027C
:103D40000200000000F0000000000101011F01015D
:103D50000100000000000000000080B070000000C2
:103D6000000000000000000000000001010101014E
:103D700001010000000000000000003030000000E1
:103D800000000000000080601804006018060100B8
:103D9000000000E010080810E000000F10202010C4
:103DA0000F00001010F8000000000020203F20202D
:103DB00000000070080808887000003028242221C4
:103DC000300000300888884830000018202020117A
:103DD0000E000000C02010F8000000070424243F5B
:103DE000240000F808888808080000192120201104
:103DF0000E0000E0108888180000000F112020112C
:103E00000E0000380808C83808000000003F000015
:103E100000000070880808887000001C2221212200
:103E20001C0000E010080810E00000003122221100
:103E30000F00000000C0C000000000000030300093
:103E40000000000000800000000000008060000012
:103E5000000000008040201008000001020408104B
:103E6000200040404040404040000404040404045A
:103E70000400000810204080000000201008040208
:103E80000100007048080808F0000000003036010A
:103E90000000C030C828E810E000071827242314C9
:103EA0000B000000C038E0000000203C2302022785
:103EB000382008F8888888700000203F20202011D2
:103EC0000E00C0300808080838000718202020100D
:103ED000080008F808080810E000203F2020201003
:103EE0000F0008F88888E8081000203F20202320D1
:103EF000180008F88888E8081000203F2000030018
:103F00000000C03008080838000007182020221ED2
:103F1000020008F808000008F808203F21010121EC
:103F20003F20000808F8080800000020203F20205B
:103F3000000000000808F8080800C08080807F00AA
:103F4000000008F888C028180800203F2001263803
:103F5000200008F8080000000000203F202020205A
:103F6000300008F8F800F8F80800203F003F003F54
:103F7000200008F830C00008F808203F200007188B
:103F80003F00E01008080810E0000F10202020106B
:103F90000F0008F808080808F000203F210101017F
:103FA0000000E01008080810E0000F182424385022
:103FB0004F0008F8888888887000203F2000030C94
:103FC000302000708808080838000038202121229D
:103FD0001C00180808F8080818000000203F2000FE
:103FE000000008F808000008F808001F2020202022
:103FF0001F000878880000C83808000007380E0144
:104000000000F80800F80008F800033C0700073C2F
:104010000300081868808068180820302C03032CDF
:1040200030200838C800C83808000000203F2000B1
:10403000000010080808C838080020382621202071
:104040001800000000FE020202000000007F404055
:104050004000000C30C000000000000000010638E5
:10406000C00000020202FE000000004040407F004D
:104070000000000004020202040000000000000032
:104080000000000000000000000080808080808030
:104090008080000202040000000000000000000018
:1040A000000000008080808000000019242222226D
:1040B0003F2008F8008080000000003F1120201100
:1040C0000E000000008080800000000E11202020E3
:1040D0001100000000808088F800000E11202010E0
:1040E0003F200000808080800000001F22222222CA
:1040F0001300008080F0888888180020203F20204E
:1041000000000000808080808000006B9494949375
:10411000600008F8008080800000203F210000201F
:104120003F2000809898000000000020203F2020C1
:104130000000000000809898000000C08080807F10
:10414000000008F8000080808000203F24022D300D
:104150002000000808F8000000000020203F202078
:1041600000008080808080808000203F20003F20F1
:10417000003F8080008080800000203F21000020E0
:104180003F200000808080800000001F2020202031
:104190001F00808000808000000080FFA12020118F
:1041A0000E000000008080808000000E112020A002
:1041B000FF80808080008080800020203F212000C0
:1041C00001000000808080808000003324242424AB
:1041D0001900008080E0808000000000001F202087
:1041E00000008080000000808000001F2020201040
:1041F0003F20808080000080808000010E30080613
:10420000010080800080008080800F300C030C3023
:104210000F0000808000808080000020312E0E3151
:104220002000808080000080808080818E70180651
:10423000010000808080808080000021302C2221BD
:10424000300000000000807C020200000000003FFF
:10425000404000000000FF00000000000000FF00E0
:1042600000000002027C800000000040403F00008F
:10427000000000060101020204040000000000002A
:104280000000000000000000005F000000030003C9
:1042900000143E143E14242A7F2A12433308666118
:1042A00036495522500005030000001C2241000041
:1042B00041221C0014083E081408083E080800505B
:1042C000300000080808080800606000002010089E
:1042D00004023E5149453E0004027F0042615149BB
:1042E0004622414949361814127F10274545453961
:1042F0003E49494932010171090736494949362683
:104300004949493E00363600000056360000081480
:104310002241001414141414004122140802015103
:1043200009063E4159555E7E0909097E7F49494982
:10433000363E414141227F4141413E7F4949494109
:104340007F090909013E4141493A7F0808087F0079
:10435000417F4100304040403F7F081422417F4070
:104360004040407F020C027F7F0204087F3E4141B3
:10437000413E7F090909061E2121215E7F090909A5
:1043800076264949493201017F01013F4040403FC3
:104390001F2040201F7F2010207F41221C22410728
:1043A000087008076151494543007F41000002043D
:1043B0000810200000417F00040201020440404038
:1043C0004040000102040040A9AAA8F07F444444F0
:1043D000383844444444384444447F38545454188E
:1043E00004047E0505085454543C7F0804047800F6
:1043F000447D40002040443D007F1028440000419F
:104400007F40007C047804787C08040478384444B5
:1044100044387C14141408081414147C007C080418
:1044200004485454542004043F44443C4040207CFD
:104430001C2040201C3C4030403C44281028440CA8
:104440005050503C4464544C4400083641410000F4
:104450007F00004141360800020102040200C0F062
:10446000FC1E0E0E0E1EFCF0C000003FFFFF800081
:10447000000080FFFF3F0000000003070707070759
:10448000030000000018181C1CFEFEFE00000000C7
:10449000000000000000FFFFFF0000000000000619
:1044A000070707070707070707060000383C1E0E27
:1044B0000E0E0E1EFEFCF000000080C0E0F0783C06
:1044C0001E0F07030000070707070707070707076F
:1044D000070000183C3E1E0E0E0E1EFCF8F00000F9
:1044E00080C0C08E0E0E0E8EFFFF7000000103070D
:1044F000070707070703010000000000C0F07C1E4B
:10450000FEFEFE000000003C3F3F393838FFFFFF51
:1045100038380000000000000707070707070700FA
:1045200000FCFEFE8E8E8E8E8E8E0E0C0000C1C3A1
:10453000C30303030387FFFFFE0000010307070710
:104540000707070703010000F0FCFE1E8E8E8E8E0B
:104550009E1C180000FFFFFF8703030387FFFFFE79
:104560000000010307070707070707030100001EF4
:104570001E1E0E0E0E0ECEFEFE7E0000000000C0BF
:10458000F0FC7F1F07010000000000000707070084
:10459000000000000000F0F8FC9E0E0E0E9EFCF8DD
:1045A000F00000F0F9FF8F0707078FFFF9F0000018
:1045B00000010307070707070301000000F8FCFEDE
:1045C0001E0E0E0E1EFEFCF80000878F9F1E1C1C88
:1045D0001C8EFFFFFF00001113171717171717176F
:1045E0001310100000000000000000000000000098
:1045F00000000000000000000000000000000000BB
:1046000000000000000000000000000000000000AA
:104610000000000000000200000000F800000000A0
:1046200000000000180018000001000100A0F0A028
:10463000F0A001010301002050F850900201000396
:104640000318984030080102020102B048A8108007
:104650000000000000002818000000000102000017
:10466000E01008000002010000000810E000000057
:10467000010000A040F040A000000100004040F018
:1046800040400002010000008080000000000000A7
:1046900000404040404000030300000000000000D4
:1046A000010000000000804020100102020201F021
:1046B000884828F00000000300002010F8000203E2
:1046C0000202021008884830010202020110084864
:1046D00048B00000000300C0A090F8800102020270
:1046E0000138282828C80102020201F048484890F1
:1046F000000003000008088848380102020201B0E7
:10470000484848B0010202020130484848F0000120
:1047100001000000B0B00000000201000000B0B0D5
:104720000000000001020040A0100800000000008E
:1047300000A0A0A0A0A00002010000000810A0405E
:10474000000002000010088848300102020202F056
:1047500008C8A8F00300000003F0484848F003022E
:10476000020201F8484848B00102020201F00808BC
:1047700008100302020201F8080808F0030202020E
:1047800002F8484848080300000000F84848480874
:104790000102020201F0080848D00300000003F8FB
:1047A000404040F800020302000008F8080001023F
:1047B00002020180000000F80300000102F840A09E
:1047C00010080302020202F80000000003000000CB
:1047D00003F8106010F80300000003F8102040F800
:1047E0000102020201F0080808F00300000000F8CE
:1047F000484848300001010102F0080808F00300B1
:10480000000003F8484848B001020202013048485D
:10481000489000000300000808F80808010202029E
:1048200001F8000000F80001020100F8000000F8A3
:104830000301000103F8008000F8020100010208F2
:1048400010E01008000003000038408040380302E8
:104850000202020888482818000302000000F80835
:104860000000000000000110204080000000020352
:1048700000000008F80000000000002010081020D0
:10488000020202020200000000000000000000001E
:1048900008102000010202020300A0A0A0C0030231
:1048A000020201F8202020C00102020202C02020E2
:1048B00020200102020203C0202020F8010202028F
:1048C00000C0A0A0A0C000000300002020F0282805
:1048D0000005050503C0202020E00300000003F8C8
:1048E000402020C000020302000020E80000010276
:1048F000020100000020E8000300010200F88040EF
:10490000200000020302000008F80000030003007A
:1049100003E020C020C00300000003E0402020C0CE
:104920000102020201C0202020C00300000000E0BC
:10493000A0A0A040000000000340A0A0A0E0000351
:1049400000000000E0402020020202020140A0A07E
:10495000A00000000102022020F820200102020134
:1049600003E0000000E00001020100E0000000E0C0
:104970000102010201E0008000E0020100010220CA
:10498000408040200005050503E0000000E0020330
:104990000202022020A0602000000102020040B0BC
:1049A000080800000300000000F8000002020100F7
:1049B000000808B04000000000000010081020109F
:1049C0000102020103E0000804E00102020103E029
:1049D000040800E00102020103E4020408E4010209
:1049E000020103E0040C00E001020A0103E0000000
:1049F00000E00102020100E00000E03001020201DB
:104A000000E00008E4300102020100E00408E030A8
:104A10000102020100E20102E4340102020100E0AD
:104A2000040CE03001020A0100E00000E030010265
:104A3000020200C0A0A8A4C00102020200C0A4A8F3
:104A4000A0C00102020200C4A2A4A8C40102020282
:104A500000C0A4ACA0C001020A0200C0A0A0A0C077
:104A60000102020200C0A8A4A8C00102020200C202
:104A7000A9A4A8C00102020200C0A8A4A9C20305FB
:104A800005050182514A54820102020200C0A8A415
:104A9000A9C301020A0200C0A8A4A8C00002030220
:104AA000000020E8040000020302000024E80000E7
:104AB00000020302000422EC0804000203020000CA
:104AC00024EC000000020B02000020E800000005BA
:104AD000050503E0000804E00005050503E00408FF
:104AE00000E00005050503E4020408E400050505EF
:104AF00003E0040C00E000020A020170808080F0F4
:104B0000010202020300A0A4A8C0010202020300E5
:104B1000A0A8A4C0010202020304A2A4A8C4010226
:104B200002020300A4ACA0C001020A020300A0A07C
:104B3000A0C001020A020304A8A8A4C0020505053A
:104B40000708505249800205050507085152488060
:104B500002050505070A51524C82020505050708A2
:104B60005153488001020A020104A8A8A4C001020E
:104B700002020300A8A4A8C0010202020302A9A421
:104B8000A8C0010202020300A8A4A9C202050505EB
:104B90000702514A5482010202020300A8A5ABC0D9
:104BA00001020A020300A8A4A8C00102020201C077
:104BB000202824C00102020201C0202428C00102D2
:104BC000020201C4222428C40102020201C0242CD2
:104BD00020C001020A0201C0202020C001020202FE
:104BE00001C0282428C00102020201C2292428C0D1
:104BF0000102020201C0282429C203040404038222
:104C0000514A548203040404038050495380010232
:104C10000A0201C0282428C00102020201C020208B
:104C200028D80102020201C2242028D8010202026F
:104C300001C0242228D801020A0201C0202028D85D
:104C40000102020201C2262028D8030404040382C0
:104C5000414254B20102020302804048FC080003B2
:104C600002020140F84808F00000000000000000C7
:104C70000000000000000000000000F8000000003C
:104C8000000000333000000000100C06100C06007D
:104C9000000000000000000040C07840C0784000E4
:104CA000043F04043F040400007088FC0830000046
:104CB000001820FF211E0000F008F000E01800009E
:104CC00000211C031E211E0000F008887000000057
:104CD0001E2123241927211010160E0000000000A9
:104CE0000000000000000000000000E018040200C6
:104CF000000000071820400000020418E000000037
:104D00000040201807000000404080F08040400034
:104D10000202010F01020200000000F0000000008A
:104D20000101011F0101010000000000000000005E
:104D300080B07000000000000000000000000000D3
:104D4000000101010101010100000000000000005C
:104D500000303000000000000000000080601804F7
:104D6000006018060100000000E010080810E000D4
:104D7000000F102020100F00001010F8000000009D
:104D80000020203F202000000070080808887000E4
:104D90000030282422213000003008888848300064
:104DA0000018202020110E000000C02010F8000084
:104DB00000070424243F240000F80888880808001D
:104DC0000019212020110E0000E010888818000032
:104DD000000F112020110E0000380808C838080004
:104DE0000000003F00000000007088080888700084
:104DF000001C222121221C0000E010080810E00005
:104E00000000312222110F00000000C0C00000008D
:104E100000000030300000000000008000000000B2
:104E200000008060000000000000804020100800AA
:104E30000001020408102000404040404040400073
:104E4000040404040404040000081020408000004E
:104E50000020100804020100007048080808F00053
:104E60000000003036010000C030C828E810E00023
:104E70000718272423140B000000C038E0000000AE
:104E8000203C23020227382008F888888870000018
:104E9000203F202020110E00C030080808083800EC
:104EA000071820202010080008F808080810E00063
:104EB000203F202020100F0008F88888E808100004
:104EC000203F20202320180008F88888E8081000D8
:104ED000203F200003000000C03008080838000010
:104EE00007182020221E020008F808000008F80811
:104EF000203F210101213F20000808F80808000098
:104F00000020203F2020000000000808F8080800CA
:104F1000C08080807F00000008F888C02818080042
:104F2000203F20012638200008F80800000000007B
:104F3000203F20202020300008F8F800F8F8080072
:104F4000203F003F003F200008F830C00008F8086C
:104F5000203F200007183F00E01008080810E0007C
:104F60000F10202020100F0008F808080808F00093
:104F7000203F210101010000E01008080810E000B6
:104F80000F18242438504F0008F88888888870004B
:104F9000203F2000030C30200070880808083800EB
:104FA0000038202121221C00180808F808081800E1
:104FB0000000203F2000000008F808000008F80862
:104FC000001F202020201F000878880000C8380813
:104FD000000007380E010000F80800F80008F8008B
:104FE000033C0700073C0300081868808068180825
:104FF00020302C03032C30200838C800C8380800A3
:105000000000203F2000000010080808C8380800F1
:105010002038262120201800000000FE0202020095
:105020000000007F40404000000C30C00000000045
:10503000000000010638C00000020202FE0000006D
:10504000004040407F000000000004020202040013
:105050000000000000000000000000000000000050
:105060008080808080808080000202040000000038
:105070000000000000000000000080808080000030
:105080000019242222223F2008F80080800000001E
:10509000003F112020110E000000008080800000E1
:1050A000000E112020201100000000808088F800F0
:1050B000000E112020103F20000080808080000022
:1050C000001F222222221300008080F08888881886
:1050D0000020203F20200000000080808080800091
:1050E000006B94949493600008F800808080000026
:1050F000203F210000203F20008098980000000001
:105100000020203F20200000000000809898000030
:1051100000C08080807F000008F800008080800050
:10512000203F24022D302000000808F80000000075
:105130000020203F20200000808080808080800030
:10514000203F20003F20003F8080008080800000C2
:10515000203F210000203F20000080808080000050
:10516000001F202020201F00808000808000000081
:1051700080FFA12020110E000000008080808000B0
:10518000000E112020A0FF808080800080808000A1
:1051900020203F21200001000000808080808000CE
:1051A0000033242424241900008080E08080000043
:1051B0000000001F20200000808000000080800090
:1051C000001F202020103F208080800000808080F1
:1051D00000010E3008060100808000800080808081
:1051E0000F300C030C300F000080800080808000A6
:1051F0000020312E0E3120008080800000808080D1
:1052000080818E7018060100008080808080800080
:105210000021302C2221300000000000807C02029E
:1052200000000000003F404000000000FF000000C0
:1052300000000000FF0000000002027C800000006F
:105240000040403F0000000000060101020204048B
:1052500000000000000000005F5F5F60606061614F
:105260006161616262626262636363636363636319
:1052700064646464646464646464646464646464EE
:1052800064646464636363636363636362626262EE
:10529000626261616161606060605F5F5F5E5E5E0F
:1052A0005D5D5D5C5C5C5B5B5A5A59595958585757
:1052B00057565655555454535252515150504F4EC3
:1052C0004E4D4C4C4B4A4A49484847464545444355
:1052D000424241403F3E3E3D3C3B3A39383837360A
:1052E0003534333231302F2E2D2C2B2A29282726E6
:1052F00025242322211F1E1D1C1B1A1917161514E5
:105300001311100F0E0C0B0A09070605030201000A
:1053100030530008000000205C0400002801000851
:105320002C5600085C0400208C0F0000840100084B
:105330007182010312E8034A0223150505010114D5
:10534000BD8E111A4C041A4D041A71041ACB041A9A
:10535000C1041ACF041AD1045ABA081AF104140D60
:105360008F111A33041A2E041A47045A30041A4CA7
:10537000041AF2201AA6041AAC041AEC041A221415
:105380001A26041A38041A1C041AFB141A19081ACB
:1053900025041A37041A4A041A48041A5B041A3CF2
:1053A000041A3B041A2A045ADA741AC6041AE904C5
:1053B0001AF4041A15181A3D041AEA0C1ADF041A12
:1053C000E6041A01101A230429941A0E041A0F0471
:1053D0001A16041A2C04291C1AA1241A56041A8518
:1053E000041AC5041AC7041AD8041AE0041AB0042F
:1053F0001AB7045AB9DC291829581AFA049AE16430
:10540000291C1A86041A13041A1D041A5F041A6D43
:10541000041AA8045A951C1A72041A8C041ABC04A3
:105420001AB2045AB8BC1AD6045AF6501AEC041A26
:10543000C9041A60041A4D041A6B041AA3041AADA5
:10544000045AC81C1AA7041AAB041461E41514E228
:10545000E2151AB1041467E3151A29101A7D041A0B
:10546000A8041A84041A4D041A5F041AB704140815
:10547000E5151A52041A69041A8F041A88041A913D
:10548000041AA3041ACC201A9D401A87041A510C3E
:105490001AEF041A39181A5A041A10041ACB101ADF
:1054A000F7041A2B0C1A74041AA5041AC2041ABCA5
:1054B000041ABE041ACA041A84041A83241ABE44A5
:1054C0001A1B081A9204293C1A5F041A49041AF09C
:1054D000101ABB041AFD045A3D181A8C045A955030
:1054E0001AB1045AB89C1A44241A48481AB1041A2A
:1054F000640C5AD24C1A1C0429CC5A804C1A011044
:10550000294C1A62045A6C041A65041A78041A5C4D
:10551000041A182414E1E2151A12481AD3041A4284
:10552000101A940429441A6A041A3F041A6E041AC1
:10553000AB041A03301A1E041A4C041A58045A7188
:105540008C29A01A36041AD6401A1C041ADB041A35
:105550007C301ADD041A1F1829D05ABA90812D0107
:105560000203040410090607080902040608ACA295
:105570004A041C29187910412C0C014004320829D6
:10558000041112100A1320149112FA12F91014695E
:1055900001E71EE51EB001E91EEB1EEF1EED1EF138
:1055A0001EE912E81008BD1EBB1EB91EEA100CBF92
:1055B0001EC11EC51EC31EC71EED12EC1008290118
:1055C000C91ECB1EFD100AF31EF91EF71EF51EE0C4
:1055D00012E112E31012A31EA11E0301AF1EB11EA1
:1055E000B51EB31EB71EE2100CA51EA71EAB1EA94A
:1055F0001EAD1EF312F212F516CF1ECD1EF4502072
:10560000D11ED31ED71ED51ED91EA101DD1EDB1E45
:10561000E31EDF1EE11E1101100122147F2A143C3B
:0C5620000C1E2101123F4301120000008B
:04000005080000ED02
:00000001FF
